:020000041000EA
:10000000002008205D0100101301001015010010F0
:100010001101001011010010110100101101001058
:100020001101001011010010110100101701001042
:100030001101001011010010190100101B01001026
:100040001D0100101D0100101D0100101D010010F8
:100050001D0100101D0100101D0100101D010010E8
:100060001D0100101D0100101D0100101D010010D8
:100070001D0100101D0100101D0100101D010010C8
:100080001D0100101D0100101D0100101D010010B8
:100090001D0100101D0100101D0100101D010010A8
:1000A0001D0100101D0100101D0100101D01001098
:1000B0001D0100101D0100101D0100101D01001088
:1000C0001D0100101D0100101D0100101D01001078
:1000D0001D0100101D0100101D0100101D01001068
:1000E0001D0100101D0100101D0100101D01001058
:1000F0001D0100101D0100101D0100101D01001048
:100100001D0100101D0100101D0100101D01001037
:1001100000BE00BE00BE00BE00BE00BEEFF3058004
:10012000103800BEF2EB88719CA70010C0A7001029
:10013000A801001090A31AE7D3DEFFFF42012110AF
:10014000FF010000C8B90000793512AB4FF0000084
:100150002049086006C881F3088810474FF05040D6
:10016000006810B14FF00000F2E70FA40ECC002998
:1001700002D000F015F8F9E71749184A002000E00E
:1001800001C19142FCD1002080F30A8814498847BC
:10019000144988471449884700BEFDE701C901C2D8
:1001A0009A42FBD3704700BFC0A700101001002087
:1001B0005014002000BB00100000082000000820A0
:1001C00000BB0010001008200010082000000000F4
:1001D0007047000008ED00E05014002000250020CA
:1001E000E9490010F90A0010AD490010F8B500BF48
:1001F000064B0749C91A891048BF0131491003D07D
:10020000044B0BB101481847704700BF5014002041
:10021000501400200000000008B5054B1BB1054933
:100220000548AFF30080BDE80840FFF7E1BF00BF1D
:100230000000000068240020F49300101F280AD852
:100240004FF050435B680122824003EA020000380D
:1002500018BF012070474FF050439B68203801229F
:10026000824003EA0200003818BF0120704790F86E
:1002700022301BB9FF2380F8223070470023FAE7B1
:1002800008B503681B68984708BDA0F11000F7E7A0
:1002900008B502F039FF60B9012141F2883002F05F
:1002A00005FF0E4B5B68032B13D8DFE803F006094C
:1002B0000C0F642002F08EFCEEE701F0C5FB08BDD8
:1002C00001F034FCFBE701F08FFCF8E701F0ACFC37
:1002D000F5E74FF4FA7002F07DFCFAE7E415002030
:1002E00010B5054B1C6804E023689B6820469847BE
:1002F000A468002CF8D110BDEC15002038B5164BC1
:100300001C683CB302F052FD31B14FF47A72002305
:1003100009F026F805460BE0104BA3FB00308509D9
:1003200006E0E36893B1E4680B4B1B68A34211D06D
:100330000B4B00221A70A368EB1A62689342F0D943
:1003400023685B6820469847A560EAE7024B1B6874
:10035000E360E8E738BD00BFE0150020D34D621030
:10036000F024002008B5024804F0C5FC08BD00BF19
:10037000F893001008B505E007F0BAFCC1B20748D1
:1003800000F0DAFD4FF050431B6D13F0010FF3D175
:10039000FFF7B4FFFFF7A4FF08BD00BFF015002072
:1003A00038B504460D4600E00134207840B164229F
:1003B000002307F06BFC03460028F5D1184638BD32
:1003C00064220023202007F061FC034608B9F5E70A
:1003D0000135287838B16422002307F057FC034622
:1003E0000028F5D1EAE7642200230A2007F04EFC3A
:1003F00003460028E2D0024A01211170DEE700BF67
:10040000F02400202DE9F0410546304B1868002803
:100410004BD00C4600F0EEFF2D4EA6FB04362D4BC4
:100420007609A3FB0412D108A3FB0103DB0803EB4D
:100430008303A1EB4302D7B201EB8101A4EB41049A
:10044000E4B22549284608F0ABFC80B12349284690
:1004500008F0A6FC58B32249284608F0A1FC68BB66
:100460007C220021194B186800F0D0FF05E05022D3
:100470000021164B186800F0C9FFDFF86880134DA3
:1004800018F806200121286800F0C0FF18F807209E
:100490000221286800F0BAFF18F804200321286818
:1004A00000F0B4FF286800F089FFBDE8F0813D222C
:1004B0000021064B186800F0A9FFDEE70022114674
:1004C000024B186800F0A2FFD7E700BFBC1F002056
:1004D0001F85EB51CDCCCCCCD097001014940010DC
:1004E0001894001028A10010F8B500240FE0264D44
:1004F000264B1B78264A127826490978284600F0B0
:100500002BFF0246A1B2284600F0D2FE0134172C80
:1005100035DC214B1B68A3422BDD204B1B78002BC5
:10052000E5D008F0A5FB1E4F3B68013390FBF3F2CA
:1005300003FB1200C5B208F09BFB3B68013390FB44
:10054000F3F203FB1200C6B208F092FB3B680133E2
:1005500090FBF3F203FB12030B4FDBB2324629464A
:10056000384600F0F9FE0246A1B2384600F0A0FE7F
:10057000CCE70022A1B2044800F09AFEC6E7024888
:1005800000F09EFEF8BD00BFD0240020A41F002074
:1005900050200020400E0020440E0020FD240020AA
:1005A000300E002008B54FF050414B6803F4005363
:1005B0001A1E18BF01224B6803F48053003B18BF7A
:1005C000012343EA4203364A12689A4220D0032AA2
:1005D00007D8DFE802F002284436012B19D0022B9D
:1005E0001CD02F4A13602F4B1B68012B43DD2E4B71
:1005F0001B68172B02DC01332B4A13602A4B196846
:100600002A4804F0A7FBFFF76FFF264B00221A6071
:1006100008BD24490A6801320A60E0E721490A68F6
:10062000013A0A60DDE7032B06D0002BD9D11D4922
:100630000A68013A0A60D4E71A490A6801320A6076
:10064000F3E7022B06D0012BCBD116490A68013AF9
:100650000A60C6E713490A6801320A60F3E71BB96A
:1006600010490A6801320A60032BBAD10D490A68A1
:10067000013A0A60B5E7B3F1FF3FC9DA0A4B1B68DC
:10068000002B02DD013B084A1360074B196808483C
:1006900004F060FBFFF728FF024B00221A60B7E767
:1006A0006416002060160020440E00201C940010E8
:1006B00034940010F8B5002405E00022A1B22B48C4
:1006C00000F0F6FD0134172C2BDC294B1B68A342EC
:1006D000F3DD08F0CDFA274F3B68013390FBF3F2CE
:1006E00003FB1200C5B208F0C3FA3B68013390FB6C
:1006F000F3F203FB1200C6B208F0BAFA3B6801330A
:1007000090FBF3F203FB1203184FDBB2324629468B
:10071000384600F021FE0246A1B2384600F0C8FD7E
:10072000D0E7154B1868E8B100F064FE002413E030
:1007300008F09EFA114BA3FB002323F00F02A2EB5B
:100740001313A0EB4300C0B20D4B1A5CE1B20A4B8D
:10075000186800F05BFE0134032CE9DD064B1868D5
:1007600000F02CFE014800F0ABFDF8BDD0240020C5
:10077000440E0020300E0020BC1F0020898888888D
:1007800028A1001008B53B4B1B78002B38D04FF048
:1007900050414B6803F480331A1E18BF01224B6886
:1007A00003F40043003B18BF012343EA4203324AEB
:1007B00012689A4224D0032A07D8DFE802F0022CFC
:1007C000483A012B1DD0022B20D02B4A13602B4B13
:1007D0001B685A1C022A13D9012B44DD6FF0090152
:1007E000274B1B68194400293FDDB1F57A7F3EDCB9
:1007F000234B1960234804F0ADFA204B00221A6005
:1008000008BD1E490A6801320A60DCE71B490A6814
:10081000013A0A60D9E7032B06D0002BD5D117493E
:100820000A68013A0A60D0E714490A6801320A608E
:10083000F3E7022B06D0012BC7D110490A68013A11
:100840000A60C2E70D490A6801320A60F3E71BB982
:100850000A490A6801320A60032BB6D107490A68BF
:10086000013A0A60B1E70A21BAE70121BDE74FF476
:100870007A71BDE7FD24002058240020681600206E
:10088000380E00204C94001008B50C4B1B68012B4F
:1008900008D0022B0CD023B9094B19780948FFF76F
:1008A000B1FD08BD084B19780848FFF7ABFDF8E724
:1008B000074B19780748FFF7A5FDF2E7E81F00206E
:1008C000400E0020D09700105020002014940010FB
:1008D000A41F00201894001010B54FF050435B681F
:1008E00003F400631C1E18BF01240C4A127802B1E5
:1008F00013B10A4B1C7010BD094A13680133094932
:1009000081FB0301A1EBE37101EB4101591A116075
:10091000054804F01FFAFFF7B7FFEAE73C0E002096
:10092000E81F0020565555556494001010B54FF03F
:1009300050435B6803F400331C1E18BF01240D4AAA
:1009400012786AB163B90C4A137883F0010313700B
:100950004BB10A490A4804F0FDF9074B1B7823B153
:10096000044B1C7010BD0749F4E7FFF78DFFFFF73C
:10097000BBFDF5E7340E0020FD2400207C94001020
:10098000849400108094001008B54FF050414B68DB
:1009900003F480631A1E18BF01224B6803F400732E
:1009A000003B18BF012343EA42034A4A12689A42B5
:1009B00025D0032A07D8DFE802F0022D493B012B9E
:1009C0001ED0022B21D0434A1360434B1B685A1C94
:1009D000022A14D9012B45DD01233F4A0021116071
:1009E0003E4A1278002A44D03D4A116859183CD436
:1009F000FF293CDC3A4B19603A4804F0ABF908BDDA
:100A000035490A6801320A60DBE733490A68013A6E
:100A10000A60D8E7032B06D0002BD4D12E490A68F0
:100A2000013A0A60CFE72C490A6801320A60F3E70D
:100A3000022B06D0012BC6D127490A68013A0A6069
:100A4000C1E725490A6801320A60F3E71BB9224968
:100A50000A6801320A60032BB5D11F490A68013ABE
:100A60000A60B0E74FF0FF33B7E70021C0E7FF218E
:100A7000C0E71D4A116881B91C4A12689B1808D446
:100A8000FF2B08DC194A1360FFF7FEFEFFF72CFD71
:100A9000B5E70B46F4E7FF23F4E7012908D0144A31
:100AA00012689B1811D4FF2B11DC114A1360EBE77D
:100AB000104A12689B1804D4FF2B04DC0D4A136003
:100AC000E2E70023F8E7FF23F8E70023EBE7FF2343
:100AD000EBE700BF5C2400205C160020FD24002012
:100AE000300E002098940010E81F0020400E0020D7
:100AF000A41F00205020002070B582B004F0C0F880
:100B0000212000F0C7FE092001F043F9092000244C
:100B100044EC44002246012101F010F90A2001F0C2
:100B200038F90A2044EC44002246012101F006F97C
:100B30000B2001F02EF90B2044EC44002246012149
:100B400001F0FCF80C2001F024F90C2044EC4400E6
:100B50002246012101F0F2F80D2001F01AF90D20D2
:100B600044EC44002246012101F0E8F80E2001F097
:100B700010F90E2044EC44002246012101F0DEF879
:100B80000F2001F006F90F2044EC44002246012119
:100B900001F0D4F8102001F0FCF8102044EC4400DF
:100BA0002246012101F0CAF8112001F0F2F81120CB
:100BB00044EC44002246012101F0C0F84FF05045BA
:100BC0006A68C2F300426B68C3F3C03343EA42036E
:100BD0006F4A136002F0EAF808F042F86A68C2F35C
:100BE00080226B68C3F3402343EA4203694A1360DF
:100BF000642001F0EFFF684807F0ECF8674804F064
:100C00007AF8674D6749284607F076FB02460523C8
:100C1000009304232146284600F0A8FC1C2002F083
:100C2000A1FD064670232246294600F09BFB5E4D3F
:100C30002E60304600F0A2FB7D222146286800F09D
:100C4000E5FB6F220121286800F0E0FB7D220221F4
:100C5000286800F0DBFB6F220321286800F0D6FB38
:100C6000286800F0ABFBFFF70FFE18214F4800F09B
:100C7000E5FA20B9FFF738FCFFF774FB5FE04C485A
:100C800004F039F80CE0494D00231A463221284679
:100C900000F062FB0246A1B2284600F009FB0134D5
:100CA000172CF0DD414800F00BFB40F24D1001F035
:100CB00091FF00240CE03D4D0023322219462846C6
:100CC00000F04AFB0246A1B2284600F0F1FA0134D6
:100CD000172CF0DD354800F0F3FA40F24D1001F02A
:100CE00079FF00240CE0314D3223002211462846C2
:100CF00000F032FB0246A1B2284600F0D9FA0134D6
:100D0000172CF0DD294800F0DBFA40F24D1001F01D
:100D100061FF002405E00022A1B2244800F0C8FAD7
:100D20000134172CF7DD214800F0CAFAA2E7FFF7DB
:100D300021FB00F0C1FD6420002101F039FFFFF725
:100D400031FCFFF721FEFFF7C7FDFFF71BFDFFF7A3
:100D5000EDFD184B1B78002BE9D0174B1C685D6824
:100D600002F024F8001B61EB0501144B1B684FF4E3
:100D70007A7202FB03F3DA1798429141D7DBFFF74F
:100D800099FC02F013F80C4BC3E90001CFE700BF58
:100D9000582400205C24002091020010B094001020
:100DA0000000205048A10010BC1F0020D0240020CB
:100DB000C8940010FD240020D0150020380E00201B
:100DC000F8B5044610461E46174B2360174B1A68A9
:100DD000E2601C600025A5606560154B2361154A23
:100DE0002260143222616576A5626161207600F08E
:100DF000D0FF2A460121207E00F0A0FF207E45EC96
:100E00004400069B636284F82360FFF717FA84F8B6
:100E1000220094F8233023B1B0FA80F0400984F81E
:100E200022002046F8BD00BFF4A00010E01500200D
:100E300004A1001010A1001010B582B00A4800F003
:100E40006FF800240094222322460849084800F045
:100E5000E8F9322300932346062206490648FFF7A5
:100E6000AFFF02B010BD00BFF015002000003050F1
:100E7000D0240020049500101C20002008B5034653
:100E8000427E32B1C06920B193F8201000F0F2F830
:100E900002E0187EFFF7D2F908BD000038B504461D
:100EA000FFF7ECFF054694F8233013B1B0FA80F554
:100EB0006D0901F07BFF11B34FF47A72002308F043
:100EC0004FFA94F82120AA4202D0A06284F821505F
:100ED000A26A831A626A934210D394F8212094F88C
:100EE00022309A420AD06069012D0DD00749FFF7E0
:100EF00057FA18B194F8213084F8223038BD044BE9
:100F0000A3FB00239809DCE70249F0E7049C0010EA
:100F1000D34D6210F897001008B5FFF78DFF08BD9C
:100F2000002280F8582080F8592080F85A2080F854
:100F30005B2002700274704770B504460E46037859
:100F4000013B052B07D8DFE803F0030E1D21282FF6
:100F5000616002230370552E5CD000232374237C30
:100F6000042B5CD070BD436843EA012343604268B0
:100F700045F255539A4202D003230370EBE7002356
:100F80000370E8E7A16004230370E4E7836843EAA1
:100F90000123836005230370DDE7E1608368013B83
:100FA000836006230370D6E7C36843EA0123C36066
:100FB0008368013B836065695DB1EA8863689A4232
:100FC00007D22B685B682846984763699B68636112
:100FD000F1E745B9636802336360A368BBB90123D5
:100FE0002370B8E7AD68002DF4D0AB8862689342F7
:100FF000F0D862689342F5D8EA8863689A42F1D3E0
:101000006168E2682B681B6828469847EAE7052371
:101010002370A0E7237C0133DBB223749FE7012315
:10102000237000232374024B1B6863619AE700BF9F
:10103000EC15002030B585B0044615468DF80F102C
:10104000012300930DF10F020179006806F0CBFF38
:10105000012802D0002005B030BD002300930123F9
:101060002A462179206806F0CAFF012814BF002013
:101070000120F0E710B582B001F007040DF107027E
:10108000072994BF00210121FFF7D4FF034610B9BF
:10109000184602B010BD9DF80730234103F001034C
:1010A000F6E7C36823F4F8438A0202F4F8421343D4
:1010B000C360036923F4F843090943EA8123036108
:1010C0007047000007EE101ADFED137A37EE277A2B
:1010D000FCEEC77A17EE903A9BB2B3B182B007EE3E
:1010E000903AF8EE677A37EE677ADFED0C7A27EE02
:1010F000277AFCEEC77ACDED017A9DF804201B0417
:1011000043EA0223036002B0704700221B0443EA53
:1011100002230360704700BF0000003B00008043D3
:101120000022026042608260C26002614FF0FF32C2
:1011300002614FF4803202604FF4F83242604FF4A3
:10114000802282604FF440228260CA1C120342EA6D
:10115000C11141604FF00052C26021F0C0414160B6
:1011600070472DE9F04389B004460D4616461F46E8
:101170009DF8448000F12F4C0CF5600CCCF3075C1B
:101180000CF10601C9B2184600F0BCFD0123009322
:101190003A462946204607F04BF90DF10C09314635
:1011A0004846FFF7BDFF39464846FFF77AFFB8F1DA
:1011B000000F34D02022059B23F0785323F4202302
:1011C00043F40033520602F078521343059323F0A0
:1011D000C02343F080430593052001F069FE07EE2C
:1011E000100AB8EE477ADDED107AF2EE046A67EE87
:1011F000A67A03AFC7EE277A17EE901A3846FFF7A4
:1012000061FF3B4632462946204607F060F92368D5
:101210000122AA401343236009B0BDE8F0831822DD
:10122000C9E70160426083609DF8003003730023CA
:10123000036183828361FF230377704730B585B0F4
:1012400004468182806908B102F094FAA08A800085
:1012500002F08CFAA061A28A9200002107F028FD1A
:101260001149206807F02EF8054610B9284605B048
:1012700030BD012302930193A368009304F110038E
:10128000221D2146084807F082F905460028EDD0C6
:10129000237B0193054B0093A36822696168206852
:1012A000FFF75FFFE2E700BF74A100100050434961
:1012B000838A8B4202D9836943F82120704700005A
:1012C00070B586464FF0000C3EE0DEF8183053F85B
:1012D0002C00C0F307249EF81C3003FB04F41D4AC5
:1012E00082FB04512144E417C4EBE114C0F307412D
:1012F00003FB01F182FB01650D44C917C1EBE51148
:10130000C0B200FB03F382FB03021A44DB17C3EBFA
:10131000E2132402A4B2090401F47F010C43DBB2FE
:101320001C43DEF80050DEF8040024026A6800F175
:10133000100101238B401A42F8D1043045F82040B7
:101340000CF1010C1FFA8CFCBEF814306345BCD8BC
:1013500070BD00BF81808080120442EA012242EA0F
:1013600003007047016042600372002303E0C2186B
:101370000021517201330F2BF9DD704730B585B074
:1013800005460D4B1B68ADF80C301B0C8DF80E306C
:1013900000240CE00123009303AB23442A7A6968FC
:1013A000286800F027FA0A2001F014FC0134022C0E
:1013B000F0DD05B030BD00BF1495001000B589B058
:1013C00000238DF80C3008E05A1C0344597A02F1CE
:1013D00020036B4403F8141C13460F2BF4DD112378
:1013E000009303AB027A4168006800F003FA09B089
:1013F0005DF804FB08B5002303E0C2180021517218
:1014000001330F2BF9DDFFF7D9FF08BD032902D8FF
:1014100000EB41004272704710B4C36823F01F0311
:1014200001F01F0C43EA0C03C360046924F01F0C95
:101430004CEA1111016123F07C7343EA0253C3604B
:101440005DF8044B7047C36823F478734A0102F4D3
:1014500078721343C360036923F47873090943EA7C
:10146000411303617047C36823F47823CA0302F46D
:1014700078221343C360036923F47823090943EAFC
:10148000C13303617047C36823F4F8438A0202F44E
:10149000F8421343C360036923F4F843090943EA9C
:1014A000812303617047000007EE101ADFED137A05
:1014B00037EE277AFCEEC77A17EE903A9BB2B3B1BB
:1014C00082B007EE903AF8EE677A37EE677ADFED92
:1014D0000C7A27EE277AFCEEC77ACDED017A9DF8DB
:1014E00004201B0443EA0223036002B07047002279
:1014F0001B0443EA02230360704700BF0000003B67
:1015000000008043436823F0F8530A0602F0F852C3
:1015100013434360036923F0F873090943EA015355
:10152000036170470022026042608260C260026113
:101530004FF0FF3202614FF4803202604FF4F83214
:1015400042604FF4802282604FF44022826001F1B9
:101550000C0C01F11102120342EACC1242604FF06E
:101560008041C16042F0C042426070472DE9F047BF
:1015700086B01C46DDF838A00133534540F0978013
:1015800005460F46914601AE11463046FFF7CAFFA9
:10159000012251463046FFF73FFF51463046FFF7E4
:1015A00052FF049B23F0E05343F0806304935146C1
:1015B0003046FFF758FF51463046FFF7A3FF21465C
:1015C0003046FFF760FF039B23F0785222F420227D
:1015D00042F0005242F4003203926FF31D4343F095
:1015E000025343F440330393052001F061FC07EEFE
:1015F000900AF8EE677A9FED317AC7EE877A17EE98
:10160000901A3046FFF750FF00220121204600F0DB
:1016100095FB00220121504600F090FB05F12F417F
:1016200001F56001C1F3075808F106085FFA88F870
:101630004146204600F066FB0121204600F09AFB5F
:101640004146504600F05EFB0121504600F092FBFF
:101650004FF0010808FA04F408FA0AFA44EA0A0406
:10166000234600223946284606F095FE23462246A8
:101670003946284606F0D2FEFBB20833DBB208FA40
:1016800003F305F54552136305F54552D36308FA94
:1016900007F42C63334609F10C023946284606F05C
:1016A00016FF2B6823432B6006B0BDE8F087044B80
:1016B000044A1521044803F07DF900BF0050434A55
:1016C000189500103095001060950010006B0123F4
:1016D0008B401840003818BF0120704770B5044691
:1016E0000E4601F1180301259D40856006E0314654
:1016F0002046FFF7EBFF30B9012333B1A3681D4249
:10170000F5D00023F9E70023F7E770BD38B50546AB
:101710000C4606F01BFF04EB440305EBC303D3F8B0
:10172000CC20C2F3C412C3F8D8200123A3402B63FA
:1017300038BD52B101EB4101C900D031084400F578
:1017400000504FF480330360704701EB4101C90042
:10175000D031084400F540504FF4803303607047A7
:1017600070B505460C461646696804F11000012361
:101770008340194206D021462846FFF7A7FF0028DC
:10178000F2D070BD21462846FFF7A0FF0028F8D10F
:10179000043425F82460F4E738B504460D464FF4C8
:1017A0008062FFF7DDFF4FF6807229462046FFF783
:1017B000D7FF4FF2807229462046FFF7D1FF38BD90
:1017C00038B504460D464FF40062FFF7C9FF4FF2EB
:1017D000807229462046FFF7C3FF4FF680722946E4
:1017E0002046FFF7BDFF4FF6817229462046FFF7DE
:1017F000B7FF38BD2DE9F04105460E461446984620
:10180000069FFFF7C9FF002231462846FFF791FFE8
:10181000A40044F001016A6806F1100301249C4011
:101820002242F8D1331D25F82310C7B1314628468E
:10183000FFF74CFF98B96A681442F6D118F8012BEB
:101840005200013F09D14FF400731A4342F00102E4
:1018500031462846FFF784FFE7E70023F5E73146E6
:101860002846FFF7ADFF31462846FFF737FF3146E0
:101870002846FFF72BFF10B90020BDE8F081314664
:101880002846FFF743FF31462846FFF799FF4FF000
:10189000FF30F2E710B5074C206000F07AFA2368B9
:1018A0004FF0010242EC44304FF0000242EC403075
:1018B00010BD00BF5016002008B501F077FAB1B195
:1018C0004FF47A72002307F04BFD0B4B1B68C31AD1
:1018D000B3F5FA7F0AD3094A137883F00103137032
:1018E000074A126843EC4020034B186008BD054BC3
:1018F000A3FB00308009E8E758160020F1240020FF
:1019000050160020D34D621010B483B000210DF1A9
:10191000070209E0836913F0100FFBD10468134636
:1019200003F8014B01311A460029F3D09DF8070056
:1019300003B05DF8044B7047034B1B684FF0010286
:1019400042EC4030704700BF54160020034B1B6828
:101950004FF0000242EC4030704700BF54160020A8
:1019600010B582B00446FFF7E7FF0E4B1A688DF8FA
:10197000074000200DF1070109E0936913F0200FE3
:10198000FBD10B4613F8011B1160013019460028EA
:10199000F3D0936913F0080FFBD1FFF7D7FF02B024
:1019A00010BD00BF4C16002008B5074B1A6893699C
:1019B00013F0080FFBD14FF4C870002101F0F8F8C4
:1019C000FFF7C4FF08BD00BF4C16002010B582B061
:1019D0000446FFF7B1FF0FE0936913F0200FFBD12E
:1019E000034613F8010B1060013118460029F3D0AB
:1019F0006420002101F0DCF8207858B1074B1A6808
:101A0000916911F02001F9D101348DF807000DF131
:101A10000700EBE7FFF7C8FF02B010BD4C1600202F
:101A2000044B1B68986900F01000B0FA80F0400980
:101A3000704700BF4C16002008B5024B1868FFF72E
:101A400063FF08BD4C16002010B508E0FFF7E8FF63
:101A5000B0B94FF050431B6D13F0010F53D101F09B
:101A6000E5FA002003F010F910F1020FEED0044661
:101A70006422002306F00AF9E0B2FFF771FFE5E700
:101A8000FFF7DAFF254B1B786BB90F2806D8234BDD
:101A900001221A70224B00221A70DAE76422002316
:101AA00006F0F4F8D5E70A2809D01D4B1B787D2BEA
:101AB00005D8591C1A4A11701A4AD054C9E7184B54
:101AC0001B78184A0A21D15401330024D45407E06A
:101AD000642200231349085D06F0D8F80134E4B20B
:101AE0000F4B1B78A342F3D8642200230A2006F090
:101AF000CDF80C490C4803F02DF90023074A137068
:101B0000074A1370A5E706F0F3F8C0B203F0E4F853
:101B10000A20002101F04CF8A1E700BFF3240020C7
:101B2000F22400206C160020B895001010B505E0D6
:101B30004FF050431B6D13F0010F0CD101F076FAFA
:101B4000FFF76EFF0028F3D0FFF776FF6422002333
:101B500006F09CF8ECE71E4B1B78EBB906F0C8F8D2
:101B6000C4B22046FFF7FCFE1A4A1368581C1060E6
:101B7000194AD4540A2C1ED0164B1B687E2BDDD973
:101B800015490024CC54154803F0E4F8114B1C60AF
:101B90000F4B01221A70D1E7114C2078FFF7E0FEBD
:101BA00021780C4A1368581C10600B4AD154084B1A
:101BB00000221A70D2E7114600241454094803F099
:101BC000C9F8044B1C60024B01221A70D4E700BF15
:101BD000480E0020EC160020F0160020D0950010D2
:101BE000E4150020BC95001008B505E04FF0504307
:101BF0001B6D13F0010F0CD101F018FA002003F057
:101C000043F810F1020FF1D06422002306F03EF8F1
:101C1000ECE706F06DF8C0B203F05EF80A20002190
:101C200000F0C6FFE8E7000010B52E4803F063F8A7
:101C30002D4803F060F836E0C4B2204603F04CF8BB
:101C40000D2C0BD00A2C09D0284B1B787E2B32D8B8
:101C5000591C264A1170264AD4542CE0234B1B7879
:101C6000234A0021D1541BB9204B00221A7022E0D4
:101C7000144611461F4803F06DF82046FFF7A6FEF4
:101C80000A20FFF76DFEFFF78FFEEDE71A4B1B787A
:101C90001A4A0021D15403BB174B00221A700A20A4
:101CA000002100F085FF01F0C1F9002002F0ECFFF7
:101CB00010F1020FC0D1FFF7B3FE0028EFD0FFF7FD
:101CC000BBFE0A28E2D00C4B1B787E2BDED8591CB9
:101CD000094A1170094AD054E1E71146084803F057
:101CE00039F8D9E7F495001010960010F42400207C
:101CF0007017002040960010F5240020F0170020F7
:101D00005C9600100C4B03EB800253F8203083F0FC
:101D1000400303F0C00302F5805CCCF80030C00043
:101D200000F1804000F52030416002F540524FF450
:101D300080731360704700BF0480034010B40C4CE4
:101D400004EB800C79B108237AB10422134354F8D0
:101D50002020534003F00C030CF5805CCCF80030DD
:101D60005DF8044B70470023EEE70022EEE700BF6A
:101D700004800340C00000F18040043000F52033AF
:101D80001B6883EA813303F4404300F52430036089
:101D9000704708B54FF0000242EC440042EC4000AE
:101DA0000521FFF7AFFF08BD0FB400B583B0049C59
:101DB000074802F0A0FF3CB105A90191204602F0BE
:101DC000A9FF044802F097FF012002F0D3FD00BFF5
:101DD0007896001078940010EFF3108072B6064BDE
:101DE000D3E8CF1F01220029FAD1C3E8412F0029EF
:101DF000F6D1BFF35F8F70478F1B00200023034A8B
:101E0000C2E88F3F80F31088704700BF8F1B00200F
:101E100070B505460C461646FFF7DEFFE208A95CE2
:101E200004F0070C012303FA0CF3194205D1DBB2CD
:101E30000B43AB54FFF7E2FF70BD21463046FFF77E
:101E4000B3FFF8B506460D4614461F46FFF7C4FF1C
:101E500000E00134BC420ED84FEAD40C16F80C1046
:101E600004F0070301229A401142F2D1D2B20A4390
:101E700006F80C2001E04FF0FF34FFF7BFFF002C05
:101E800001DB2046F8BD002DFBD00698FFF78CFF44
:101E900038B505460C46FFF79FFFE1086A5C04F081
:101EA00007040123A3401A4205D022EA03026A5420
:101EB000FFF7A4FF38BD034B034A3321034802F068
:101EC00079FD00BF8896001084A10010A89600102C
:101ED000054A1078431CDBB21370172B02D9134646
:101EE00010221A70704700BF490E002000B583B061
:101EF0000146054B00931F2318220448FFF7A1FF5A
:101F000003B05DF804FB00BFF0960010B01F002086
:101F10004FF0E022936843F0005393607047000055
:101F2000002305E0044A1A440021C2E88F1F013350
:101F30001F2BF7D9704700BF841B0020064B9B68FE
:101F4000103043F82010BFF35F8F00230349C1E82E
:101F50008F3F82F31088704700ED00E08D1B00205A
:101F60000048704700E400E008B5FFF7F9FF0023E0
:101F700004E04FF0803240F8042B01330C2BF8D9E9
:101F800008BD000008B50388DA0A1C2A06D15B05E3
:101F90000BD45B15023300EB430008BD064B074A28
:101FA00040F21511064802F005FD03F5FF1303F595
:101FB000FF531F33EDE700BF0C970010BCA10010CA
:101FC0002497001008B5091A01F2FC7240F6FE735E
:101FD0009A4208D8081F11F0010F04D1C0F34A003B
:101FE00040F4604008BD034B034A40F20711034828
:101FF00002F0E0FC6C970010B0A1001024970010D4
:102000004209064B53F8223000F01F0001228240A3
:1020100003EA0200003818BF0120704700E100E029
:102020003AB1064B00F1600243F8221043F8201049
:1020300070472030014B43F82010704700E100E06A
:1020400008B50A4600F01F03012199404009FFF737
:10205000E7FF08BD00F01F02400901239340403014
:10206000014A42F82030704700E100E0024B9B68D3
:10207000103053F82000704700ED00E008B5FFF77E
:10208000F5FF034BC01A2F288CBF0020012008BD8C
:102090004C0E002070B505460C46EFF3108672B664
:1020A0000F4BD3E8CF1F01220029FAD1C3E8412FFB
:1020B0000029F6D1BFF35F8FFFF7D8FF094B984295
:1020C00001D0A04205D1324621462846FFF736FF0F
:1020D00070BD054B054AE721054802F06BFC00BFC7
:1020E0008D1B00201D0100109C970010E4A1001022
:1020F000249700102DE9F04F87B000911546EFF3BB
:10210000108A72B67C4BD3E8CF1F01220029FAD186
:10211000C3E8412F0029F6D1BFF35F8F774B93F9C6
:102120000040002C44DB804604EB4407744B03EB77
:10213000870797F90610714A1170724A926800F188
:10214000100152F82190A9EB03022F2A3ED96E4BC1
:10215000994534D14FF42143ADF80C304FEA44098E
:1021600004EB4400664E06EB800068490230FFF73E
:1021700029FFADF80E004BF60153ADF81030FF23E8
:102180008DF812308DF81350009B0593A14406EB97
:10219000890306AA12E9070083E8070047F001094E
:1021A000524649464046FFF7C9FE07B0BDE8F08FEA
:1021B000574B584A40F27311574802F0FBFB574BFC
:1021C000544A4FF4BD71544802F0F4FB29F0010B5E
:1021D000ABEB0303524AA2FB0312D20802EB42020A
:1021E000B3EB820F0FD15B460026DA79AA4212D9EF
:1021F00093F90620002A0DDB02EB42021E46404BFB
:1022000003EB8203F1E7474B424A40F28B1142480D
:1022100002F0D0FB1E46A6B344F60103ADF80C3025
:102220004FF48F43ADF80E3096F906B0BBF1000FB6
:102230001ADA4BF60150ADF810008DF812B08DF897
:102240001350009B05933946301DFFF7BBFEB0804D
:10225000B47104EB44042A4B03EB840306AA12E98D
:10226000070083E807009BE7301DFFF78BFE014660
:1022700004EB4402224B03EB8203181DFFF7A2FE7E
:10228000D9E74FF42143ADF80C306300019304EB20
:102290004406DFF86C9009EB86061C49B01CFFF77A
:1022A00091FEADF80E005946301DFFF78BFEADF8DC
:1022B00010004AF6AA235A464946521A524153433D
:1022C0001B0D8DF812308DF81350009A0592019B6A
:1022D000234409EB830906AB13E9070089E80700EB
:1022E00044F60103ABF800304FF48F43ABF80230F3
:1022F00047F0010954E700BF8D1B0020F92400209E
:102300004C0E002000ED00E01D0100107C0E0020AE
:10231000D4970010CCA1001024970010FC97001057
:10232000ABAAAAAA2498001038B540F00104324B99
:10233000E31A2F2B31D8EFF30581C9B2002933D02E
:10234000EFF3108E72B62D4BD3E8CF5F0122002D34
:10235000FAD1C3E8452F002DF6D1BFF35F8F4AF6BF
:10236000AA230246244D521B524153431B0D4FFAE0
:1023700083FC234B9B6853F82130A3421BD00023DE
:10238000032B32D803EB43011B4A02EB810292F983
:102390000620624520D00133F2E71A4B1A4A4FF467
:1023A0001D711A4802F006FB194B174A40F27721BB
:1023B000164802F0FFFA124B9B68164A43F8212098
:1023C000154B1A78827183F800C000230B4AC2E8CB
:1023D0008F3F8EF3108838BD074A02EB8101FF243E
:1023E0008C714BF601538B80EAE70C4B064A4FF495
:1023F0002271064802F0DEFA4C0E00208D1B0020F0
:1024000000ED00E0A898001094A10010249700109F
:10241000D09800101D010010F9240020DC98001055
:1024200000B583B00146074B009305230022064800
:10243000FFF707FD002801DBC0F1330003B05DF8B2
:1024400004FB00BFE4980010FE240020014B0B4465
:1024500003607047841B002010B50446FFF738FD69
:1024600001462046FFF7F2FFFF232371BFF35F8F82
:1024700010BD10B50446FFF72BFD01462046FFF7BF
:10248000E5FFFF23237100236371BFF35F8F10BD4E
:1024900010B50D4C09E00D4B0D4A1A210D4802F004
:1024A00089FA2046FFF7D8FF08340B4B9C4209D22B
:1024B0002368002BF5D0012BEDD12046FFF7D9FF83
:1024C0000834F2E710BD00BF40140020009900104E
:1024D00024A200102099001050140020024B0B443D
:1024E0000360BFF35F8F7047841B002010B5044664
:1024F0000120FFF7FBFC01462046FFF7EFFF10BD70
:102500000246EFF30583DBB2103B990804D0034881
:1025100003F00303136070470148F9E700800B40A4
:1025200000000B4010B4846AA2EB040C0B1D50F8A1
:1025300023301B1B9C4504D3046A01238B401C429F
:1025400002D1043140F821205DF8044B704741EA84
:10255000004070470D4B1A68EFF3108172B6D2E855
:10256000CFCF0120BCF1000FF9D1C2E84C0FBCF174
:10257000000FF4D1BFF35F8F1A680023C2E88F3FCA
:1025800081F3108840BF002000217047B024002054
:102590002DE9F04F85B003A8FFF7B2FF954B9842A5
:1025A00014BF00230123039901EB8303924A52F8DD
:1025B00023402378994206D1054601228A4000F53E
:1025C00041535A602CE18D4B8D4A92218D4802F087
:1025D000F1F9D4F8149006EB46074FEAC70A09EB65
:1025E000C707D7F808B0D7F80C80284600F0B4FB2E
:1025F000B0EB0B0061EB0803002BC0F21A81B8F1BD
:10260000000F64DB3B691A4600937F4B9A4230D03F
:10261000798889B2B4F90800FFF799FF7969009BBE
:102620009847009001910099019A51EA02034ED017
:102630001346002A29DABBEB010268EB0308BA60F3
:10264000C7F80C8039F90A70002FC0F2F280D4F874
:1026500014E007EB47030EEBC3039968DB68511ADC
:1026600068EB0303002BC0F2E480A4462CF8087F3B
:1026700017E07A69136900921046984738B3009AB8
:102680001368009353680193CDE7284600F064FB7C
:10269000009B1A18019B43EB0108D0E79C463EF9CA
:1026A0000B70002F0EDBBCF9003003EB43034FEA45
:1026B000C30B0EEBC3039868D968101A68EB0101CD
:1026C0000029EBDA29F80A70ACF80060B1E039F9BA
:1026D0000A3023812369EFF3108272B6D3E8CF0F5B
:1026E00001210028FAD1C3E8401F0028F6D1BFF32A
:1026F0005F8FB4F9023029F80A306680216900231F
:10270000C1E88F3F82F3108893E02369EFF31082D2
:1027100072B6D3E8CF0F01210028FAD1C3E8401FD9
:102720000028F6D1BFF35F8FB4F804800FFA88F861
:102730004FF6FF73A38021690023C1E88F3F82F326
:1027400010881AE01F4630F90A60002E0FDBB7F937
:10275000003003EB43034FEAC30A00EBC30399685D
:10276000DA68BCEB01016EEB0202002AEADAA7F894
:10277000008030F9098020F80960B8F1000F5DDBB6
:10278000606908EB48034FEAC30900EBC303D3F8C1
:1027900008C0D3F80CE004F10807B4F90860D4E7E6
:1027A0000023A37104F1080CB4F9083010E04FF0D5
:1027B000FF384FF0FF39C0E90289B4F908009842A8
:1027C00005D0ACF80020B4F90800C85323811346A3
:1027D000B3F1FF3F35D0616903EB4302D70001EB52
:1027E000C20031F93220468816F4004FDFD184460A
:1027F000EDE700BF00800B4088240020B499001052
:1028000050A20010E099001091250010284600F019
:10281000A3FA3F1A66EB0106012F76F1000628DACB
:10282000039A01239340EB63B4F90860002EBFF6CE
:10283000D0AEA38813F4004F3FF467AFA379002B09
:10284000AED1B4F90830002B13DB626903EB43030C
:1028500002EBC3039F68DE68B6F1FF3F08BFB7F124
:10286000FF3FD3D03A46334603992846FFF75AFE36
:10287000CCE740BF05B0BDE8F08F00BFF8B5044617
:102880000D4611460A4B984210D000262E440127CF
:1028900007FA05F525623046FFF7FCFB394630465E
:1028A000FFF7CEFB04F501542560F8BD0426EDE7E3
:1028B00000800B40F8B504460E4617461D46C16021
:1028C000FFF706FB164B034423612770ABB263810D
:1028D0004FF05042127862704FF6FF722281A28050
:1028E000013B63804FF0000C08E00CF1FF300CEB73
:1028F0004C0E636923F83E000CF1010CAC45F4D397
:10290000084B9E4214BF0023012307EB8303064AB2
:1029100042F82340054A39463046FFF7AFFFF8BD7D
:10292000841B002000800B4088240020912500108B
:1029300008B5054B1B690BB1034808BD034B044A9E
:102940006521044802F036F8940E0020209A001009
:1029500038A20010E0990010F8B504469E460069C0
:10296000EFF3108172B6D0E8CF6F0125002EFAD1B7
:10297000C0E8465F002EF6D1BFF35F8FB4F9025076
:10298000666905EB4500C70006EBC000002D03DBC0
:1029900036F907C0A4F802C04FF0000C2369C3E861
:1029A0008FCF81F31088654533DB06990161079964
:1029B00041618260C0F80CE0418889B20131C1F305
:1029C0000E0101B9012141802846FFF7C0FD2369AE
:1029D000EFF3108272B6D3E8CFCF0121BCF1000F24
:1029E000F9D1C3E84C1FBCF1000FF4D1BFF35F8FE6
:1029F000A388F353A58021690023C1E88F3F82F3A8
:102A00001088E368217801228A4003F501535A6057
:102A1000F8BD4FF0FF30FBE770B582B006461546B3
:102A20001C469DF8203033B900F0C0F9854264EBB4
:102A3000010100290ADB079B0193069B00932A46AC
:102A400023463046FFF788FF02B070BD0020FBE749
:102A5000F0B585B005460C4616461F46FFF768FFE1
:102A60009DF828300293019700962A462346FFF7E7
:102A7000D3FF05B0F0BD03464089B0EB214F31DDF7
:102A800010B50A14586902EB420200EBC2001A6941
:102A9000EFF3108C72B6D2E8CF4F5FF0010E002C2E
:102AA000F9D1C2E844EF002CF5D1BFF35F8F428823
:102AB00092B289B28A420FD0002019690022C1E87F
:102AC0008F2F8CF3108830B1DA681B780121994080
:102AD00002F50153596010BD42F4004242800120CA
:102AE0009871EAE70020704710B50446FFF720FF11
:102AF0002146FFF7C0FF10BD40787047F0B583B0A6
:102B0000EFF30583DBB2CBB904460D46861F41F1D6
:102B1000FF37B04271EB070301D20026374600F0C1
:102B200045F9301A67EB0103012873F1000308DA55
:102B30002046294600F04CF903B0F0BD1848FFF7D5
:102B400033F900230093174A30463946FFF780FFD8
:102B5000002819DAECE7144B1A68EFF3108172B60B
:102B6000D2E8CFCF0120BCF1000FF9D1C2E84C0F61
:102B7000BCF1000FF4D1BFF35F8F1A680023C2E8E5
:102B80008F3F81F3108820BF084B5B6A9F42E2D8D9
:102B9000064A926AB242CBD29F42C9D1DBE700BF5C
:102BA000449A001055250010B024002000000B406E
:102BB00038B504460D4600F0F9F8201845EB010140
:102BC000002902DBFFF79AFF38BD4FF0FF306FF0AE
:102BD0000041F7E708B5C30E4101091A63F100038C
:102BE0009B0043EA91738900091843F10003DB005D
:102BF000C80043EA5171FFF7DBFF08BDF0B583B0B1
:102C000005460C46EFF30583DBB293B1384B5B6AA4
:102C10008B4209D3364A926A824208D28B4201D053
:102C2000012002E0002000E0002003B0F0BD012000
:102C3000FBE7FFF77DFEC7680678384600F08CF8A2
:102C40002A1A64EB0101043657F826301B1A9A42FF
:102C500071F1000112DB20BF254B5B6A9C4209D851
:102C6000234A926AAA4207D29C4201D00120DCE7A3
:102C70000020DAE70020D8E70120D6E70023009300
:102C80001C4A28462146FFF7E3FE002818DD184BB2
:102C90005B6A9C4205D8164A926AAA4202D29C42BA
:102CA00000D120BFFFF720FF114B5B6A9C421BD86D
:102CB0000F4A926AAA4219D29C4213D00120B4E76B
:102CC0000B4B5B6A9C4209D8094A926AAA4207D216
:102CD0009C4201D00120A8E70020A6E70020A4E73D
:102CE0000120A2E70020A0E700209EE701209CE74A
:102CF00000000B40552500100048704700000B40B5
:102D000010B50A4B1B6923B10A210948FFF79EFB46
:102D100010BDFFF7F1FF0446032100F00BF810236C
:102D2000032221460148FFF7C5FDEDE7940E002080
:102D3000B024002010B5054A054C064BA04214BF34
:102D40001846581CFFF764F810BD00BF949A001095
:102D500000800B40B41F00200246436A906A194667
:102D6000536A9942FAD17047416A00E0416A994238
:102D7000FCD300E0416A994202D1816A9142F9D3C1
:102D8000704770B5064614461D46FFF7E5FF021969
:102D900041EB0503824273EB010102D24FF0FF3297
:102DA00013463046FFF7E0FF70BD000008B502484B
:102DB000FFF7D2FF08BD00BF00000B4008B5024678
:102DC0000B460248FFF7DDFF08BD00BF00000B40C7
:102DD00008B502460B460248FFF7C6FF08BD00BF14
:102DE00000000B4070B51646049D00EB400C4FEA06
:102DF0008C0C0CF1804C0CF5803CDCF80420AA42D1
:102E000001D2CCF80450A0F1040E5FFA8EFEBEF1A0
:102E1000010F28D90CF540524FF4006414601E4A8B
:102E200052F8202042B11C4C6469B4FBF2F4013426
:102E300004EB4404033CFDD2DCF8002082EA461295
:102E400002F0E0020CF580542260BEF1010F16D9A9
:102E50000CF500524FF400611160CCF804500E4A9A
:102E600042F8203070BD0129D4D10CF54052032422
:102E70001460DCF8082012F0010FFAD0DCE7DCF86F
:102E800000204A4002F003022260DCF808400122E0
:102E90008A401442F9D0DBE7C01F002010B582B091
:102EA0004FF480340094FFF79DFF02B010BD000086
:102EB000014B53F820007047C01F002070B5049CE0
:102EC000344DB5FBF1FC344D1544344EB54237D882
:102ED000B2FBFCF5A5F1100EBEF5987F36D803F1D4
:102EE000FF3EBEF1060F37D804F1FF3EBEF1060FDC
:102EF00032D8BCEB121F35D8240344EA03440368DC
:102F0000002B35DB264B984242D00E2301229A40FB
:102F1000244B1A6003F580531A60234B9B6832EAF6
:102F20000303FAD10160856000F540520432212389
:102F300013600368002BFCDAC4600823136070BDC3
:102F40001A4B1B4A11211B4801F034FD1A4B184A39
:102F50001921184801F02EFD184B154A1C2115485F
:102F600001F028FD164B124A2321124801F022FDE0
:102F7000036803F03F038B42C4D18368C3F30B03A0
:102F8000AB42BFD1C36803F4EE23A342BAD1D6E764
:102F90000F23BBE7001BB70080E84BD380F8A932B2
:102FA000008005400020024000000240B89A001056
:102FB00068A20010089B0010509B00106C9B001032
:102FC000B89B001070B504460D4616460023DB8AF8
:102FD000002242E800F212F4800F09D1102145F2DC
:102FE000473098470346324629462046984770BDE9
:102FF000042145F2473098470346F4E700B587B00F
:103000004022052101A8FFF7DDFF052807D1019B1C
:10301000402B07D19DF8090007B05DF804FB6FF065
:103020000F00F9E76FF00F00F6E70000024B1A6897
:10303000024B5A60704700BF6024002000800D40A2
:1030400008B5164B4FF080421A60A3F54123144A8D
:103050009A6051B103F540234FF0E0621A6048B91D
:10306000104B4FF000421A6008BD0C4B4FF0E0626D
:103070001A60F4E74FF47A7303FB00F00A4B186010
:10308000B0F1807F02D36FF07F421A60FFF7CEFF6E
:10309000044B4FF080421A60E6E700BF00B00D40DD
:1030A000F3FFFF0100A00D406024002008B5034B92
:1030B000034ADA61FFF7C4FF08BD00BF00800D407E
:1030C0002131B76A10B50C4B4FF080441C6070B1D1
:1030D00040F0010309480A4CC4610A4C5C40046298
:1030E0004162836200211046FFF7AAFF10BD034B27
:1030F0000021D961F6E700BF00B00D4000800D400F
:10310000D3C007B02D3FF84F08B5094B9B680BB9EA
:10311000002008BDFFF772FF002804DB30F08003B9
:1031200003D10120F5E70020F3E70020F1E700BF1D
:1031300000800D40054A00EB400302EB8303596019
:1031400000EB4000800001231350704700801040C6
:103150002DE9F04105460E46174698460023DB8AC6
:10316000002242E800F212F4800F0BD1102144F249
:1031700052209847044643463A4631462846A047DF
:10318000BDE8F081042144F2522098470446F2E75A
:1031900008B50023DB8A002242E800F212F4800F17
:1031A00002D11021984708BD04219847FBE708B5D4
:1031B000031E04DB41F020003AB141F030010A4621
:1031C0000A214FF48170FFF7C3FF0146F7E70000C3
:1031D000034BD3F82838002BFAD0BFF35F8F70472A
:1031E00000000E40002207E0054B13449B00BFF394
:1031F0005F8F002119600132072AF5D9704700BF9F
:103200000382031008B5FFF7EDFF08BD074B4FF42D
:103210002A621A604FF48D72DA6003F50053044A93
:103220001A60024B5B68002BFBDA70470080044099
:1032300000B0FA0010B5044602E054F8043B984789
:10324000014B9C42F9D310BDE89300107047000079
:1032500008B50248FFF7EEFF08BD00BFA8930010B5
:1032600008B50248FFF7E6FF08BD00BFD493001081
:10327000064B074A1A6003F58053064A1A60064B4C
:103280009A68044B9343FAD1704700BF0020024074
:103290007F3BEFEFF6FFF30300000240054BDB6CD2
:1032A000B3F5004F00D07047034B4FF48022DA642F
:1032B000F9E700BF00001150002011504FF0E0224C
:1032C000D2F8881D034B0B43C2F8883D10EE300442
:1032D000704700BF03033000054B6FF060421A6077
:1032E000044B9B68DB4333F06043F9D1704700BF68
:1032F000003002400000024008B545F25320FFF7BD
:1033000047FF03460420984708BD08B545F25320FF
:10331000FFF73EFF03460120984708BD08B5FEF7BA
:10332000FFFD08BD38B5054CA168054D4FF4887206
:10333000284605F013FEA56038BD00BF00ED00E093
:103340000000002038B50420FFF7B2FD064BA3FBB8
:103350000035AD0C002404E02946E0B2FFF7EAFE98
:103360000134052CF8DD38BD83DE1B4330B583B056
:10337000264B0022C3F88420FFF748FF244B01228C
:10338000DA63224B5B6C012BFBD1214B03221A63C6
:103390001E4B9B6B012BFBD10224009405231D4A7D
:1033A00001211D48FFF78AFD052500952B461B4A84
:1033B00001211B48FFF782FD1A4B00222146042001
:1033C000FFF76CFD184C2346002201212846FFF729
:1033D00065FD164D2B46002211460820FFF75EFDC5
:1033E0002B46002211460920FFF758FD23460022F4
:1033F00011460620FFF752FD234600221146072002
:10340000FFF74CFDFFF79EFF03B030BD0000014009
:1034100000300140002F685900000540008C8647AD
:1034200000800540001BB70080D1F008006CDC0272
:1034300086B003B451FC0804CDE9020151FC090433
:10344000CDE9040151EC0A04CDE9060103BCF047C3
:10345000BDE800504EEC00C4BDE800504EEC01C485
:10346000BDE800504EEC02C400BD000000B5FFF7FF
:10347000DFFF02E010FE30F4F8D441EC100443EC1E
:10348000112400EE010410EE010480EE200451EC42
:103490001004704700B5FFF7CBFF02E010FE30F4D8
:1034A000F8D441EC100443EC112400EE010410EEBA
:1034B000210480EE200451EC3004704700B5FFF782
:1034C000B7FF02E010FE30F4F8D410B541EC100460
:1034D00043EC112451EC040453EC0524A0FB024CF2
:1034E0005FF0000EE0FB03CEE1FB02CE4CEC20448B
:1034F0000024E1FB03E444EC30E480EE200451ECD2
:103500005004BDE81040704700B5FFF791FF02E09E
:1035100010FE30F4F8D441EC100443EC112451ECCB
:103520002104A0FB01126FEA820252FB100052FB41
:1035300012F252FB1000A0EBD07C53EC04245CFB95
:1035400013F153EC1524A1FB022001FB030053EC03
:103550004424A2EB000050FB1CF24FEA111312EBC3
:10356000017043EBE27140EA515020EA915020F0A3
:10357000070053EC7524A0FB023C53EC752400FBC0
:1035800003CC01FB02CC53EC0424ACEB824C40EAAC
:103590005C70A0F1010041EC400480EE200451EC8D
:1035A0007004704700B5FFF743FF02E010FE30F4EF
:1035B000F8D440EC700400EE010410EE210480EE1B
:1035C000200451EC3004704700B5FFF731FF02E0F2
:1035D00010FE30F4F8D440EC600400EE010410EE6C
:1035E000210480EE200451EC3004704700B5FFF751
:1035F0001FFF02E010FE30F4F8D441EC800400EE2E
:10360000010410EE010480EE400410EE1304704734
:1036100000B5FFF70DFF02E010FE30F4F8D441ECE6
:10362000800400EE010410EE010480EE400410EE70
:103630003304704700B5FFF7FBFE02E010FE30F4E4
:10364000F8D441EC100443EC112400EE010410EE18
:103650003004C0F30070704700B5FFF7E9FE02E0E8
:1036600010FE30F4F8D443EC102441EC110400EEC9
:10367000010410EE30F48CBF01200020704700BF21
:1036800000B5FFF7D5FE02E010FE30F4F8D443ECAD
:10369000102441EC110400EE010410EE30F42CBFB4
:1036A00001200020704700BF00B5FFF7C1FE02E017
:1036B00010FE30F4F8D441EC100443EC112400EE79
:1036C000010410EE30F42CBF01200020704700BF31
:1036D00000B5FFF7ADFE02E010FE30F4F8D441EC87
:1036E000100443EC112400EE010410EE30F48CBF02
:1036F00001200020704700BF08B528B103460B44E5
:10370000034A934200D808BD0248FEF74DFB00BFB4
:1037100000000820D49B001070B50546084E3046C6
:1037200005F026FE284604F0C3FF0446304605F0A7
:103730001BFE29462046FFF7DFFF204670BD00BF75
:103740004014002038B50446054D284605F010FE0B
:10375000204604F0B5FF284605F006FE38BD00BF40
:103760004014002008B5FFF7D7FF08BD08B5FFF7E4
:10377000D3FF08BD08B5FFF7E5FF08BD704720B1CE
:1037800008B50A684968904708BD7047014600209F
:1037900008E000EB8000531C0B60137803EB400340
:1037A000A3F130000A681378303BDBB2092BF0D963
:1037B00070472DE9F04F83B005460E4693461F46ED
:1037C000DDF830A00D9CDDF838900F9B13F0030F4F
:1037D00019D1A046019208E002F1010B3B463146A7
:1037E0002020A84708F101085A46C845F4D3DDF85F
:1037F00004B008E0013C02F101083B4631461AF8EA
:103800000400A8474246002CF4D10F9B13F0020F8E
:1038100009D1104603B0BDE8F08F541C3B46314639
:103820002020A8472246A2EB0B034B45F5D3F0E737
:103830002DE9F04385B099460C9D0D9C9DF838808C
:10384000DDF840E0119F129E16F0020F21D17FB1EA
:1038500016F0010F0CD0B8F1000F02D116F00C0FCA
:1038600006D0013F04E04FF0300C05F804C00134ED
:10387000744501D21F2CF6D916F0010F09D0BC42B5
:1038800007D21F2C05D84FF0300C05F804C00134C6
:10389000F2E716F0100F14D016F4806F04D11CB1AB
:1038A000744522D0BC4220D00F9B102B33D00F9BED
:1038B000022B3DD01F2C0ED84FF0300C05F804C061
:1038C00001341F2C07D8B8F1000F39D04FF02D0C60
:1038D00005F804C0013403960297019400954B4605
:1038E000FFF767FF05B0BDE8F083B4F1010C1DD010
:1038F0000F9B102B0ED064460F9B102BD7D116F0C8
:10390000200FD4D01F2CD2D84FF0580C05F804C08B
:103910000134CFE7023C16F0200FEDD11F2CEBD87D
:103920004FF0780C05F804C00134C3E76446BBE7E8
:103930001F2CD0D84FF0620C05F804C00134B9E751
:1039400016F0040F05D04FF02B0C05F804C001341D
:10395000C1E716F0080FBED04FF0200C05F804C0E8
:103960000134B8E7F0B591B0169C189D1B9E0CB9B8
:1039700026F0100616F4806E1DD064B34FF0000ED2
:1039800019E016F0200F24D04127BC445FFA8CFCCC
:10399000ACF10A0C5FFA8CFC0EF101070EF1400E3F
:1039A000EE440EF820CCB4FBF5FCAC4214D31F2F30
:1039B00012D8BE466446B4FBF5FC05FB1C4C5FFA0E
:1039C0008CFCBCF1090FDCD80CF1300C5FFA8CFCDC
:1039D000E2E76127D9E7274606961A9C0594199CC9
:1039E000049403959DF85C400294019708AC009400
:1039F000FFF71EFF11B0F0BD2DE9F04F95B0099013
:103A00000A910B929846DDF878B0DDF87C90229D03
:103A1000239F269E5BEA090201D126F0100616F4C8
:103A2000806424D05BEA09022FD000241FE016F046
:103A3000200F28D041231344DBB20A3BDBB204F150
:103A4000010A04F150020DEB020404F8203C2A465E
:103A50003B465846494605F083FCAB4579EB0709E0
:103A600015D3BAF11F0F12D85446834689462A4609
:103A70003B465846494605F073FCD2B2092AD6D8CF
:103A80003032D3B2DBE76123D5E74FF0000A069668
:103A9000259B0593249B049303959DF88030029306
:103AA000CDF804A00CAB009343460B9A0A990998F1
:103AB000FFF7BEFE15B0BDE8F08F0000000000006B
:103AC0002DE9F04F93B004460D4617461E46DDE93A
:103AD0001CAB52465B4650465946FFF7AFFD0028E7
:103AE00040F0F3804FF0FF32AD4B50465946FFF7A0
:103AF000F3FD002840F0E9804FF0FF326FF48013AF
:103B000050465946FFF7ACFD002840F0DE80002209
:103B1000002350465946FFF7A3FD002840F0E680F9
:103B2000CDE906AB209B13F480630F9301D10623EC
:103B30001E93DDE9062310461946CDE90A01079BCD
:103B400052EA030100F0DC80C3F30A50C3F313030D
:103B5000904643F07F5949F44019A0F2FF30FFF737
:103B600025FD7DA3D3E90023FFF7ACFC7CA3D3E9BB
:103B70000023FFF77FFCCDE908010022894B404676
:103B80004946FFF78BFC78A3D3E90023FFF79AFCA3
:103B900002460B46DDE90801FFF76CFCFFF72AFD42
:103BA0000890FFF703FD8046894671A3D3E90023FF
:103BB000FFF788FC00227C4BFFF75CFCFFF71AFD47
:103BC0000A906DA3D3E9002340464946FFF77AFCEB
:103BD000804689460A98FFF7E9FC69A3D3E90023E8
:103BE000FFF770FC02460B4640464946FFF756FC7D
:103BF0008046894602460B46FFF764FCCDE90C017E
:103C00000A9B03F2FF3300210022CDE90A121B05B3
:103C10000B9300230A9342464B4640464946FFF722
:103C200029FCCDE9100142464B4600204FF080416F
:103C3000FFF734FC8046894600225C4BDDE90C012D
:103C4000FFF766FC00225A4BFFF714FC02460B46B6
:103C5000DDE90C01FFF75CFC0022564BFFF70AFC84
:103C600002460B46DDE90C01FFF752FC02460B460B
:103C700040464946FFF7FEFB02460B46DDE91001D0
:103C8000FFF746FC00224C4BFFF7F4FBDDE90A236B
:103C9000FFF718FC80468946CDE90A89DDE906234D
:103CA000FFF71AFD50B1089B013B08930022404BDF
:103CB00040464946FFF72CFCCDE90A01089B6333D7
:103CC000C62B46D84FF004081EE0209B04931F9B90
:103CD00003931E9B0293CDE900AB33463A46294637
:103CE000204600F0FDF813B0BDE8F08F9FED267B75
:103CF0008DED067BCDF818A00BF10043079311E77B
:103D0000002308934FF00408209B13F4006F5FD04A
:103D1000DDE90A1213460B4313D01DA3D3E9002398
:103D2000DDE90601FFF7C4FC002800F0B4801AA307
:103D3000D3E90023DDE90601FFF792FC002800F03B
:103D4000AA801E9A089B9A4238DDD31A013B1E9323
:103D500036E04FF00508D7E7FB799F501344D33F77
:103D6000B3C8608B288AC63F61436F63A787D23F81
:103D700071A379094F930A401655B5BBB16B024048
:103D8000EF39FAFE422EE63F00000000000000007E
:103D90002D431CEBE2361A3F0000000080842E41C8
:103DA000FFFFEF7F0000F83F0000E03F00002C40E5
:103DB00000002440000018400000F03F00231E9344
:103DC000209B43F4806320934FF00008CDF82080BF
:103DD0001F9B984569D2A3EB0809209B13F00203AF
:103DE0000C9304D0B8F1000F01D04FF00009089BEC
:103DF0003BB1DDE90A23DDE90601FFF789FBCDE9E7
:103E000006010022002350465946FFF729FC0028EE
:103E10004ED1209B23F400630493CDF80C901E9B9D
:103E200002939DED067B8DED007B33463A46294695
:103E3000204600F055F8B8F1000F3FF454AF209B36
:103E400013F0200F3CD04FF0450C00F10109334630
:103E5000024629466046A047089981EAE172A2EB32
:103E6000E1720523059308F1FF33049300230393C4
:103E70000A230293CB0F0193009233464A46294608
:103E80002046FFF76FFD0C9B002B3FF42CAF024642
:103E9000DDF87C901EE01E9B002B99D00F9B002B21
:103EA00096D01E9B013B1E9392E74FF0000994E7CA
:103EB000DDE90601024601F10043CDE90623A8E74A
:103EC0004FF0650CC1E702F1010833462946202076
:103ED000A0474246D31B4B45F5D3104603E700BF2E
:103EE0002DE9F04F2DED028B95B007900A91924687
:103EF0009B46DDE92089229D42464B464046494685
:103F0000FFF79CFB002835D14FF0FF326FF4801390
:103F100040464946FFF7A4FB00283AD14FF0FF3254
:103F2000B14B40464946FFF7D7FB002840D1AAA332
:103F3000D3E9002340464946FFF7CEFB00284DD188
:103F4000A7A3D3E9002340464946FFF789FB002891
:103F500044D10022002340464946FFF781FB002858
:103F60004AD100230B93249B13F4806F00F0B5809B
:103F7000002454E0249B0393239B02930323019387
:103F80009A4B00935B4652460A990798FFF711FC3B
:103F90001BE1249B0393239B029304230193944BE3
:103FA00000935B4652460A990798FFF702FC0CE122
:103FB000249B13F0040F0ED08E4B042224990391FE
:103FC00023990291019200935B4652460A99079801
:103FD000FFF7EFFBF9E0884B0322EFE7249B049304
:103FE000239B03930295CDE900895B4652460A99CB
:103FF0000798FFF765FDE8E042464B4600200021A8
:10400000FFF74CFA8046894601230B93ABE704F196
:1040100050036B44302203F8202C013D01341F2C47
:1040200001D8092DF3D840464946FFF7E3FA064682
:10403000FFF7BCFA02460B4640464946FFF72EFA08
:104040006E4B03EBC50393ED008B53EC182BFFF77E
:1040500039FA02460B46CDE90823FFF7DDFA074699
:10406000FFF7B6FA02460B46DDE90801FFF716FA3C
:1040700002460B46CDE908230022614BFFF72CFBDB
:1040800068B301373846FFF7A3FA02460B4651ECF6
:10409000180BFFF7F9FA08B1013600276DBB30465F
:1040A000FFF784FA02460B4640464946FFF7F6F909
:1040B000074688460022524BFFF7D2FA00284CD11F
:1040C00000224F4B38464146FFF706FB002844D1FB
:1040D00016F0010F41D001363FE0062548E70022E7
:1040E000474BDDE90801FFF7BBFA0028D6D117B12D
:1040F00017F0010FD2D00137D0E71F2C17D8013DA0
:10410000404BA3FB0723DB08194603EB8303A7EB14
:104110004303621C303304F150000DEB000404F83B
:10412000203C092F02D90F461446E6E714461F2CFF
:104130000AD86B1E45B104F150026A44302102F8DE
:10414000201C1D460134F2E71F2C06D804F1500351
:104150006B442E2203F8202C01341F2C17D82A4A36
:1041600082FB0632F317C3EBA2031A4603EB830369
:10417000A6EB4303611C303304F150000DEB000447
:1041800004F8203C16460AB10C46E6E70C46249B90
:1041900003F00303012B39D01F2C09D80B9B002BF4
:1041A00051D004F150036B442D2203F8202C01342C
:1041B000249B0393239B029301940CAB00935B46D7
:1041C00052460A990798FFF7F4FA15B0BDEC028B36
:1041D000BDE8F08FAFF300800000000065CDCD4159
:1041E0000000000065CDCDC1FFFFEF7F4C9C0010AB
:1041F000509C0010409C0010489C0010D8A2001059
:104200000000E03FCDCCCCCC67666666239BB3B1A3
:104210000B9B1BB9249B13F00C0F12D0239B013B6B
:104220002393194606E004F150036B44302203F84F
:10423000202C01348C42AFD21F2CF4D9ACE7239947
:10424000F8E72399F6E7249B13F0040F07D004F155
:1042500050036B442B2203F8202C0134A8E7249B45
:1042600013F0080FA4D004F150036B44202203F88C
:10427000202C01349CE700BF2DE9F04F8FB0804621
:1042800017460D938946002900F04F83002508E06A
:104290006C1C3B462A464946C0470D9B01330D9393
:1042A00025460D9B1878002800F042832528EFD181
:1042B00001330D9300261FE046F0010601320D92F6
:1042C000012318E046F0020601320D92012312E0AC
:1042D00046F0040601320D9201230CE046F0080678
:1042E00001320D92012306E046F0100601320D92D4
:1042F000012300E000234BB30D9A1378203B102BD1
:10430000F8D801A151F823F0DD420010F542001069
:10431000F5420010E9420010F5420010F54200108D
:10432000F5420010F5420010F5420010F542001071
:10433000F5420010D1420010F5420010C5420010B5
:10434000F5420010F5420010B94200100A930D9B8F
:104350001A78A2F13003DBB2092B18D92A2A1BD014
:104360000A9B0B930D9B1A782E2A25D00D9A137851
:10437000683B122B5CD8DFE803F0495BAC5B3B5B2E
:104380005B5B5B5B5B5B575B5B5B5B5BB1000DA887
:10439000FFF7FCF90B90E5E7189B1A1D18921B68B4
:1043A000002B04DB0B930D9B01330D93DAE746F0F2
:1043B00002065B420B93F6E746F480665A1C0D92A8
:1043C0005A78A2F13003DBB2092B0CD92A2ACDD1BD
:1043D000189B1A1D18921C6824EAE4730A930D9B1B
:1043E00001330D93C2E70DA8FFF7D0F90A90BDE79E
:1043F00046F48071531C0D9353786C2B01D00E46FC
:1044000016E046F4407602320D9211E046F080014B
:10441000531C0D935378682B01D00E4608E046F0EC
:10442000C00602320D9203E046F4807601320D920E
:104430000D9B1878672856D82528C0F06C82A0F10B
:104440002503422B00F26782DFE813F05A0265026F
:104450006502650265026502650265026502650224
:104460006502650265026502650265026502650214
:104470006502650265026502650265026502650204
:1044800065026502650265026502650288016801D0
:1044900088016502650265026502650265026502C2
:1044A00065026502650265026502650265026502D4
:1044B00065027100650265026502650265026502BA
:1044C0006502650265027100AF0171008801680133
:1044D000880146F4007601320D92A9E746F4807611
:1044E00001320D92A4E7782800F215826928C0F005
:1044F0001282A0F16902D2B20123934049F2410233
:10450000134214D113F0800F40F0DF8113F4806F59
:1045100000F00182189B1A1D1892D3F800A00A9B84
:10452000002B40F090814FF0FF32534674E16F282A
:104530003DD005D858283CD0622803D1022304E09E
:10454000782838D026F010060A23582835D0692854
:1045500003D0642801D026F00C0616F4806F01D039
:1045600026F0010669282BD0642829D016F4007F94
:1045700040F0968016F4807F40F0AE8016F0400F39
:1045800000F0BF80189A111D1891127805960B99AA
:1045900004910A99039102930023019300923B46F0
:1045A0002A4649464046FFF7DDF9054629E008233B
:1045B000CBE71023C9E71023C7E746F02006C6E77C
:1045C00016F4007F21D116F4807F42D116F0400FFF
:1045D00058D0189A111D1891127882EAE271A1EB55
:1045E000E27105960B9804900A9803900293D20FFB
:1045F000019200913B462A4649464046FFF7B2F9F0
:1046000005460D9B01330D934BE6189A073222F0B5
:10461000070202F108011891516812680846002942
:1046200013DB08960B9C07940A9C069404930023C2
:104630000593C90F0291009201903B462A464946D4
:104640004046FFF7D9F90546DBE7524261EB4100EE
:10465000E7E7189A111D1891126882EAE271A1EB3E
:10466000E27105960B9804900A9803900293D20F7A
:10467000019200913B462A4649464046FFF772F9AF
:104680000546BEE716F0800F05D0189A111D189147
:10469000B2F90020A1E7189A111D189112689CE741
:1046A000189A073222F0070202F1080118910896C1
:1046B0000B9907910A9906910021049305910291A3
:1046C000D2E90023CDE900233B462A46494640462D
:1046D000FFF792F9054694E7189A111D189105966F
:1046E0000B9904910A990391029300230193136893
:1046F00000933B462A4649464046FFF733F90546B4
:104700007FE716F0800F04D0189A111D18911288B7
:104710003CE7189A111D1891126837E746281AD0FD
:10472000189B073323F0070303F10802189204963D
:104730000B9A03920A9A0292D3E90023CDE900234F
:104740003B462A4649464046FFF7CAFB05460D9BB5
:1047500001330D93A5E546F02006E1E7672801D077
:10476000472801D146F40066452801D0472801D1E9
:1047700046F02006189B073323F0070303F10802D5
:10478000189204960B9A03920A9A0292D3E9002394
:10479000CDE900233B462A4649464046FFF790F9BB
:1047A00005460D9B01330D937BE516F002061CD0E8
:1047B00001241898031D189305F1010A3B462A4667
:1047C00049460078C047AEB90D9B01330D9355465D
:1047D00067E5551C3B4649462020C04723462A46EC
:1047E0005C1C9A45F5D81546E3E70123DDF82CA0BB
:1047F0002A46F5E75246DDF82CA006E0561C3B465B
:1048000049462020C0472C463246651CA245F5D8B3
:104810009246D9E701330A46197811B1511E002A90
:10482000F8D1A3EB0A0316F4806B03D00A9A9342E3
:1048300028BF134616F0020407D00C940A9E2A469D
:104840005D469B4623E00A9A6FE6CDF830B02A46D3
:1048500025460B9C07E002F1010B3B464946202010
:10486000C04733465A465E1C9C42F4D8DDF830B04F
:104870002C4633460C940A9E5D469B4607E01E4636
:104880000AF1010A541C3B464946C04722469AF8A1
:10489000000020B1002DF3D0731E002EEFD10C9C30
:1048A00015465B461CB90D9B01330D93F9E40B9E35
:1048B00006E0551C3B4649462020C04723462A4671
:1048C0005C1C9E42F5D81546EDE746F02106189B84
:1048D0001A1D18921B680596082204920A9A0392E0
:1048E000102202920022019200933B462A4649463A
:1048F0004046FFF737F805460D9B01330D93D0E492
:104900006C1C3B462A4649462520C0470D9B013377
:104910000D932546C5E46C1C3B462A464946C047D4
:104920000D9B01330D932546BBE4DFF82080ADE4F9
:10493000BD4208D37A1E3B4649460020C047284660
:104940000FB0BDE8F08F2A46F5E700BF7D370010B5
:1049500000B585B002900391009313464FF0FF32EB
:1049600002A90348FFF788FC05B05DF804FB00BF0F
:104970007F37001000BEFDE70346094A126842B1C6
:10498000074A10680344074A934206D8044A136052
:104990007047034A04491160F2E74FF0FF30704757
:1049A00054200020000008200025002008B5FFF753
:1049B000E1FF000000B583B08C4619465AB1144699
:1049C000064B0194009363460246054800F0C2F985
:1049D0000120FFF7CFFF034B1C46F2E7589C001065
:1049E000689C00105896001010B5EFF30583DBB2F9
:1049F00003B100BEFEF72CFC044C02E054F8043B6B
:104A00009847034B9C42F9D310BD00BFE8930010B8
:104A1000F493001008B5034608461B6811469847F2
:104A200008BD0000F8B507460D461646437D13B194
:104A3000002420460CE003681146284698472EE0E3
:104A40003B7D10E03B68022115489847601C01340B
:104A5000B44214DA002CF3DD2B1913F8013C0D2BB2
:104A600014BF002301232A5D0A2AF0D1002BEED1C6
:104A7000A042E7DA3B68211A28449847E2E7B042AF
:104A800003DA3B68311A28449847002E07DD354485
:104A900015F8013C0D2B14BF002301233B75F8BD15
:104AA00044A3001038B50368BBB105460B4B1C6826
:104AB00006E0294651F8042B2046FFF7B3FF24698E
:104AC0004CB12368002BFAD0054B1B68002BF0D0AB
:104AD000A342F4D1EDE700232B6038BD1420002061
:104AE0004C20002038B505460C460B68802B05D0BD
:104AF00023685A1C22601C44257138BD0846FFF704
:104B0000D1FFF5E708B5FEF751F9074A821841F1E0
:104B10000003002B03DB054804F036FC08BD4FF012
:104B2000FF326FF00043F6E740420F0048140020C8
:104B300008B5024804F018FC08BD00BF4814002066
:104B40002DE9F04383B006460D4690461C46FFF71C
:104B5000D9FF8146B5F1FF3F04D044B1174F184B40
:104B60001C6807E0304604F06FFA0546F5E7154F7C
:104B7000F5E72469BCB12368002BFAD0124B1B68FF
:104B80000BB1A342F5D12A4631462046B847B8F1C9
:104B9000000FEED00A238DF8073001220DF1070136
:104BA0002046B847E5E7B9F1000F03D1284603B026
:104BB000BDE8F083FFF7BCFFF8E700BF254A00100F
:104BC00014200020154A00104C2000202DE9F84345
:104BD00007460E4691469846144B1C6807E0A368AA
:104BE00023B131463846984700281CDC246934B18B
:104BF0000F4D2D68002DF2D0A542F7D1EFE70D4BF8
:104C00005B6A984508D80B4A926A4A4509D298458A
:104C100002D06FF0010006E001200021FEF7CEF87F
:104C2000DAE76FF00100BDE8F88300BF1420002030
:104C30004C20002000000B40094A136802E003F1F9
:104C400010021B6943B113688342F8D131B903697B
:104C5000136000230361704701B11060704700BF0B
:104C60001420002010B5054B1C6800E0246924B115
:104C70006368002BFAD09847F8E710BD1420002095
:104C800008B500F0E1F908BD10B582B00446FEF7A2
:104C90008DF8221841F10003002B0ADB012101A845
:104CA000FFF794FF002802DB40B19DF8040002B03A
:104CB00010BD4FF0FF326FF00043EFE7034B044AA3
:104CC00040F203110348FFF775FE00BF989C0010E7
:104CD00028A300109C9C001010B582B004468DF8EB
:104CE00007000123002219460DF10700FFF728FFF6
:104CF000204602B010BD38B5054604F0A5F90446BB
:104D000001231A4601462846FFF71AFFFFF7AAFFBC
:104D1000204638BDF0B5A3B004460E46FFF7F2FEBC
:104D200005460023019301AF334622463946084821
:104D3000FFF70EFE04463846FFF7B4FEFFF792FF7A
:104D400015B9204623B0F0BDFFF7F2FEF9E700BF2A
:104D5000E54A00100FB400B583B004A951F8040B64
:104D60000191FFF7D7FF03B05DF804EB04B0704783
:104D700070470000014B00221A707047FA2400208F
:104D80004B79FF2B0BD18B795BB9CB79012B0AD1F6
:104D9000082A0AD98A78064B1A7009207047002021
:104DA000704700207047002070470020704700BF08
:104DB000FA24002001207047012923D108B59188E9
:104DC000114B1B78994201D0002008BD5378012B6C
:104DD00003D0022B0FD00020F7E7518811F4807F19
:104DE00006D0480AC1F3402201F07F01FEF7DFF947
:104DF0004FF0FF30F6E7642200210846FEF762F923
:104E00000120E2E701207047FA24002000487047A3
:104E100010A4001001290FD108B594465378012B36
:104E20000CD19388072B01D0002008E0A623044A68
:104E3000614601F0F5FB02E001207047002008BD4B
:104E400068A30010012303700048704748A30010B6
:104E500008B50B68B3F5966F00D008BD0022114667
:104E60004FF0FF30FEF7A3F90368EFF3108272B63C
:104E7000D3E8CFCF0121BCF1000FF9D1C3E84C1F1B
:104E8000BCF1000FF4D1BFF35F8F426070470000A8
:104E9000024B1860024B1960704700BFA81F00202A
:104EA000AC1F002008B5FDF781FF0E4A821841F1C2
:104EB0000003002B11DB0C4804F066FA60B10021FE
:104EC0004FF0FF3001F040FA002001F02DFD0028E6
:104ED000F5D1054804F048FA08BD4FF0FF326FF0F5
:104EE0000043E8E740420F00B424002038B5124BDD
:104EF0001B68C3B1104C2046FFF7B6FF00230F4AD2
:104F0000137021686268C1E88F3F82F31088002423
:104F100000250B4B1878FDF773F840B900240025E5
:104F20002046294638BD4FF47A740025F1E7044B3A
:104F30001878FDF78FF8F3E780240020FC24002088
:104F4000FB24002008B5024B1878FDF783F808BD54
:104F5000FB24002070B584B0064614461D46FDF7BC
:104F600025FF221845EB0103002B0BDB9DF82810D1
:104F7000029109990191089900913046FDF74CFD85
:104F800004B070BD4FF0FF326FF00043EEE7F0B5B4
:104F900085B005460C4616461F46FDF7C9FC9DF830
:104FA00028300293019700962A462346FFF7D2FF46
:104FB00005B0F0BD10B582B000211D4804F0F0F935
:104FC000A8B91C4B1B6883B11A4C2046FFF74CFF55
:104FD000194A1378DBB20121117020686268002140
:104FE000C0E88F1F82F31088BBB102B010BD002152
:104FF0004FF0FF3001F0A8F9002001F06FFC0446EB
:105000000B4804F0B1F9002CEFD00C4B1B68002BBF
:10501000EBD00B4A10689847E7E7012300930B4653
:10502000084A4FF47A700021FFF7B1FFDDE700BFB7
:10503000B424002080240020FC240020A81F00208D
:10504000AC1F0020ED4E001010B582B04FF0504361
:105050001C68FDF76DFCFDF74FFDA0422DD1244BE0
:105060001B780021084602F001F9224B1B6853B35C
:105070000120FDF7D5F9C0B21F4C20701F49FDF784
:1050800009F801212078FCF7DBFF0E20FCF7F6FF82
:105090000446E0B10120FCF729FF01461848FDF75E
:1050A0001DFA002217490E20FDF724F801211648A9
:1050B000FFF7C2FD204602B010BD144B144AC121B7
:1050C0001448FFF777FC0B48FDF7C6F9D0E70C4A08
:1050D000002313605360012200920F4A4FF47A704C
:1050E0000021FFF754FFC443E40F002CE2D0DDE7BA
:1050F000BCA70010B4240020FB240020B54F0010F2
:1051000080240020454F0010AC0E0020E49C0010CD
:1051100040A40010EC9C0010ED4E001008B50020DB
:1051200001F0C2FB08BD000038B504460D46FFF78C
:10513000F5FF90B3002001F0D1FB88B3FDF736FEF8
:105140001A4A821841F10003002B16DB184804F0BC
:105150001BF940B3FFF7E2FF18B1002001F0BEFBDE
:1051600080B900214FF0FF3001F0EEF86FF002043B
:105170000F4804F0F9F8204638BD4FF0FF326FF0C9
:105180000043E3E72A462146002001F0B3FB044632
:105190000028EDD16FF00204EAE76FF00204EAE7BD
:1051A0006FF00204E7E76FF00204E4E740420F000B
:1051B000B4240020F8B507460D46FDF7F7FD2E4A4A
:1051C000821841F10003002B04DB2C4804F0DCF8CA
:1051D00028B9F8BD4FF0FF326FF00043F5E7FFF755
:1051E0009DFF002845D1264B00200021C3E9000186
:1051F000224804F0B9F8ECE700214FF0FF3001F04D
:10520000A3F8002001F090FBFFF788FF0028EFD003
:10521000002001F007FCF8B1AC42E9DA2E1B0020B7
:1052200001F000FC864200DC30460028E4D0024653
:105230003919002001F0D4FB064600214FF0FF3061
:1052400001F082F8002001F06FFB3444FDF7AEFD61
:105250000B4BC3E90001DFE7FDF7A8FD084A13681F
:105260005268084E9B1942F1000283428A41D3D210
:10527000BEE70024D0E700BF40420F00B424002066
:10528000D815002020A1070000487047BCA40010DA
:105290000048704768A4001010B50446144B1B78F2
:1052A0006BB18CB9134B40F209425A800123013390
:1052B0005B009BB20F4843F44073038010BD112183
:1052C0000B4800F047F8ECE7052C0ED80A4B53F8D2
:1052D00024000023122BEAD8C25C002AE7D0013355
:1052E000044921F81320DBB2F4E70020E6E700BF11
:1052F000BC240020EC1F002050A4001000B58BB08F
:1053000045F24730FDF744FF03460122092101A879
:105310009847042801D100230EE00A4B0A4A2921AC
:105320000A48FFF747FBC3F10F0228326A4412F81C
:10533000241C074AD1540133072BF4DD0BB05DF870
:1053400004FB00BF7C9D0010F0A40010849D0010A1
:10535000A824002008B511B18C46002208E0104BAB
:10536000104A35211048FFF725FB373383540132AB
:105370000CF1FF3393420FD90F2A0DD853080B4974
:10538000CB5CD14301F0010189000B4103F00F0315
:10539000092BEADC3033E9E70023835408BD00BF62
:1053A000D49D0010D0A40010849D0010A8240020DB
:1053B00030B400F07F05C3094FEA450C0CEBD01C5C
:1053C000244C04EB4C1C8CF8020083F001008CF898
:1053D000010000208CF80300ACF818108CF81B209A
:1053E000DBB9EA001C49114403EB4500194A02EB02
:1053F0004012916003EB4501164A02EB411292689C
:10540000002111607DB903EB4502124B03EB4213FF
:105410005960124ADA6030BC7047114901EBC5018E
:10542000CCF80810E6E753B96A1ED2000D491144C2
:1054300003EB4503074A02EB43135960EBE7691E90
:10544000094A02EBC10203EB4501024B03EB411396
:105450005A60E0E7582000208400105000011050EE
:10546000800010500C0010500800105008B5038B3D
:105470003F3323F03F03C27E022A08D008490A685E
:10548000C26013440B60074A934202D808BD5B0018
:10549000F4E7054B054A52210548FFF78BFA00BF98
:1054A00064240020FF0F1050DC9D00103CA500106C
:1054B000209E001070B500F07F054FEA450C0CEB04
:1054C000D0130C4C04EB4314FFF772FF05B970BD09
:1054D000218B2046FFF7CAFFE27EE36883F0A043FA
:1054E00083F4801343EA826343F0004362681360ED
:1054F000EDE700BF5820002008B500F07F035B00F7
:1055000003EBD010024B03EB401000F01BF908BD79
:105510005820002008B520B901210E20FCF790FD8D
:1055200008BD034B034A40F297110348FFF742FAC4
:10553000909E00102CA50010209E001008B528B9E0
:10554000002211468020FFF7D7FF08BD034B044A15
:1055500040F2A1110348FFF72DFA00BF909E001002
:105560001CA50010209E0010024B4FF48032DA641C
:10557000704700BF0020115070B548BB064600F0D0
:10558000C1F8174C0C23A367FF2216490E20FCF725
:10559000B1FD40252A460021134803F089FB002273
:1055A00029461046FFF786FF002229468020FFF794
:1055B00081FF03F0E1FE012525644FF00053E36411
:1055C0000A4BC4F890303046FFF7CEFF284670BD36
:1055D000074B084A40F263110748FFF7EBF900BF99
:1055E00000001150F10300205820002010D00100CD
:1055F000909E001050A50010209E0010044B1970C2
:1056000021B1044B4FF40032C3F89020704700BF23
:10561000F7240020002011500B7813F07F0F02D1E7
:105620004B78052B00D070474B88DBB2014A1360E2
:10563000F9E700BF00001150CA7802F00302012A06
:1056400009D008B50B468988C1F30A019878FFF79D
:1056500031FF012008BD0020704708B503F08CFE23
:1056600008BD000010B530B9084611461A46FFF7CC
:1056700043FF012010BD034B034A4FF4017103485F
:10568000FFF798F9909E00100CA50010209E0010C6
:1056900008B511F07F0304D1CA090ED10220084ACF
:1056A00090665B0003EBD1134FF4006200210548C4
:1056B00000EB431003F064FE08BD0120EFE700BFDC
:1056C000002011505820002008B511F07F0300D1B0
:1056D00008BD5B0003EBD113044800EB431000222C
:1056E000C2706FF4006103F04BFEF1E75820002018
:1056F00004E011F8012B00F8012B1A46531E002A72
:10570000F7D1704708B54FF080530A4A136002F58D
:1057100080521360084B9B6813F0805FFAD04FF4FF
:1057200080520021054803F0C3FA054B09225A674D
:1057300008BD00BF002002400000024000001050E1
:105740000000115070B504460D461646837EABB975
:10575000A6820023E3820123A3762561204603F07D
:1057600017FE20B10B4B4FF40032C3F890202046B7
:1057700003F012FE50B10123237770BD81780648F3
:10578000FFF7E8FA204603F0DFFDE1E7204603F0EB
:10579000E3FDF2E700201150809F00100368EFF353
:1057A000108272B6D3E8CFCF0121BCF1000FF9D13E
:1057B000C3E84C1FBCF1000FF4D1BFF35F8F426010
:1057C0007047000038B50546002408E0D21A1B4B8C
:1057D00003EB4213DB68284698470134E4B2184BC8
:1057E0001B782246591CA14215DBA342EED9154B6A
:1057F0001B6813EB4413EDD140F2252212491348E4
:10580000FFF7A8FA4FF0E023D3F8F03D13F0010FB3
:1058100013D000BE11E00E4C54220021204603F0AC
:1058200047FA4FF0FF336360A360E36023612022F7
:10583000FF2104F1140003F03BFA38BD24A6001048
:10584000F6240020E0190020F0A50010B89F0010F9
:10585000B01B002008B5FFF7B5FF00F037FF08BD0B
:1058600070B505460C461646486900F039FF636975
:10587000324601212846984770BD00002DE9F04FBF
:1058800083B08246481EC0B2FFF702FD20B18346B6
:1058900043780193022B11D040F2D632624963481B
:1058A000FFF758FA4FF0E023D3F8F03D13F0010F63
:1058B00000D000BE002003B0BDE8F08FC279C2F373
:1058C00040105B4B197860F304111970C2F3801219
:1058D000C9B262F3451119700BF10908BBF8023027
:1058E0009B447BE098F8033098F8002090447DE0DA
:1058F00040F2F1324C494D48FFF72CFA4FF0E023CB
:10590000D3F8F03D13F0010F00D000BE0020D2E725
:10591000F31A484A02EB4319D9F810302A46414697
:1059200050469847082801D985421ED20134E4B276
:10593000414B1B7826465A1CA2424ADBA342E7D9B8
:105940003E4B1B6813EB4419E6D140F2FA3236495C
:105950003648FFF7FFF94FF0E023D3F8F03D13F09E
:10596000010F00D000BE0020A5E73B464F46814610
:10597000012B11D000218B4224D998F802200A442F
:10598000D2B22B4810440079FF280BD1284802449A
:1059900014710131C9B2EEE73969294A9142E9D15E
:1059A000019BE7E740F219421F492048FFF7D2F96F
:1059B0004FF0E023D3F8F03D13F0010F00D000BE0C
:1059C000002078E723464A4641461E4801F05AFD2A
:1059D000C844194B1B7801339E4212DCD84520D2B3
:1059E00098F801300B2B3FF47DAF012398F801208C
:1059F000042A7FF47DAFABEB0805ADB200241F464F
:105A000096E74FF4856208490848FFF7A3F94FF07D
:105A1000E023D3F8F03D13F0010F00D000BE0020CA
:105A200049E7012047E700BFC4A50010B89F001058
:105A3000B01B002024A60010F6240020E01900204E
:105A40009D6B0010C41B00207047704700207047FA
:105A50000020704738B505460C464B881A0AD8B264
:105A6000531E0E2B64D8DFE803F0082D4E636359F4
:105A70002D636363636363632200FFF705FC0246E3
:105A800028B112232146284600F0CAFD51E040F219
:105A90003A422C492C48FFF75DF94FF0E023D3F848
:105AA000F03D13F0010F00D000BE002041E0FFF7F1
:105AB000ADF9024600283DD043882146284600F033
:105AC000AFFD36E0022A09D0FFF7C2FF024698B3C5
:105AD00053882146284600F0A3FD2AE0FFF7D8FBB3
