:020000041000EA
:10000000002008205D0100101301001015010010F0
:100010001101001011010010110100101101001058
:100020001101001011010010110100101701001042
:100030001101001011010010190100101B01001026
:100040001D0100101D0100101D0100101D010010F8
:100050001D0100101D0100101D0100101D010010E8
:100060001D0100101D0100101D0100101D010010D8
:100070001D0100101D0100101D0100101D010010C8
:100080001D0100101D0100101D0100101D010010B8
:100090001D0100101D0100101D0100101D010010A8
:1000A0001D0100101D0100101D0100101D01001098
:1000B0001D0100101D0100101D0100101D01001088
:1000C0001D0100101D0100101D0100101D01001078
:1000D0001D0100101D0100101D0100101D01001068
:1000E0001D0100101D0100101D0100101D01001058
:1000F0001D0100101D0100101D0100101D01001048
:100100001D0100101D0100101D0100101D01001037
:1001100000BE00BE00BE00BE00BE00BEEFF3058004
:10012000103800BEF2EB8871608C0010848C0010D7
:10013000A801001090A31AE7D3DEFFFF42012110AF
:10014000FF010000CC980000793512AB4FF00000A1
:100150002049086006C881F3088810474FF05040D6
:10016000006810B14FF00000F2E70FA40ECC002998
:1001700002D000F015F8F9E71749184A002000E00E
:1001800001C19142FCD1002080F30A8814498847BC
:10019000144988471449884700BEFDE701C901C2D8
:1001A0009A42FBD3704700BF848C001010010020DE
:1001B000900E0020049A0010000008200000082083
:1001C000049A001000100820001008200000000011
:1001D0007047000008ED00E0900E0020581D002040
:1001E0009D3F001081060010613F0010F8B500BF70
:1001F000064B0749C91A891048BF0131491003D07D
:10020000044B0BB101481847704700BF900E002007
:10021000900E00200000000008B5054B1BB10549F9
:100220000548AFF30080BDE80840FFF7E1BF00BF1D
:1002300000000000E01C0020A47900101F280AD84C
:100240004FF050435B680122824003EA020000380D
:1002500018BF012070474FF050439B68203801229F
:10026000824003EA0200003818BF01207047FF23D4
:1002700080F8223080F8233000238362C362704705
:1002800008B503681B68984708BDA0F11000F7E7A0
:1002900090F822301BB9FF2380F8223070470023EA
:1002A000FAE708B503681B68984708BDA0F110007D
:1002B000F7E7000008B502F047FA60B9012141F202
:1002C000883002F013FA0E4B5B68032B13D8DFE87B
:1002D00003F006090C0F642001F0D2FEEEE700F0F7
:1002E00037FE08BD00F0A6FEFBE700F001FFF8E7CF
:1002F00000F01EFFF5E74FF4FA7001F0C1FEFAE7D7
:100300001C10002010B50A4800F072FB094C58225E
:100310002146094800F0F6FB59222146074800F023
:10032000F1FB5B222146064800F0ECFB10BD00BF4C
:1003300028100020780E0020641800205418002097
:100340005C18002010B5054B1C6804E023689B680E
:1003500020469847A468002CF8D110BD2410002036
:1003600038B5164B1C683CB301F076FF31B14FF441
:100370007A72002307F0D8FA05460BE0104BA3FB76
:100380000030850906E0E36893B1E4680B4B1B6815
:10039000A34211D00B4B00221A70A368EB1A6268BB
:1003A0009342F0D923685B6820469847A560EAE746
:1003B000024B1B68E360E8E738BD00BF181000205F
:1003C000D34D6210491D002008B5024803F06DFFAF
:1003D00008BD00BFA879001008B505E006F062FF6F
:1003E000C1B2074800F010FB4FF050431B6D13F0F3
:1003F000010FF3D1FFF7B4FFFFF7A4FF08BD00BF63
:100400002810002038B504460D4600E0013420785D
:1004100040B16422002306F013FF03460028F5D103
:10042000184638BD64220023202006F009FF034649
:1004300008B9F5E70135287838B16422002306F0C1
:10044000FFFE03460028F5D1EAE7642200230A20D4
:1004500006F0F6FE03460028E2D0024A01211170A0
:10046000DEE700BF491D002008B50B490B4807F027
:100470000FF90321042000F0C9FE0321052000F03C
:10048000C5FE00220121042000F0DCFE0022012133
:10049000052000F0D7FE08BD801A0600780E002067
:1004A00008B50F4803F001FF10210E4800F042FB91
:1004B000034608B9184608BD0B4803F0F6FE0021B4
:1004C0000A4800F037FB03460028F3D0084803F041
:1004D000ECFE1021074800F02DFB0346EAE700BFC1
:1004E000C479001054180020D87900106418002036
:1004F000EC7900105C180020F8B5044610461E4642
:10050000174B2360174B1A68E2601C600025A5603A
:100510006560154B2361154A2260143222616576AD
:10052000A5626161207600F0A9FE2A460121207EA5
:1005300000F088FE207E45EC4400069B636284F850
:100540002360FFF77BFE84F8220094F8233023B168
:10055000B0FA80F0400984F822002046F8BD00BFC0
:10056000088600101810002018860010248600103D
:1005700070B504461046194A2260194A1568E560AC
:1005800014600025A5606560164A2261164A226043
:1005900014322261616101222276E061FF2684F833
:1005A000226084F82360059A6262A562E56284F89D
:1005B00020309DF8102084F82120194600F027FBF8
:1005C00094F82110E06900F022FB84F8226084F89E
:1005D0002360A562E562204670BD00BF088600105A
:1005E00018100020188600104486001008B5034635
:1005F000427E32B1C06920B193F8201000F027FB91
:1006000002E0187EFFF71AFE08BD000038B5044668
:100610001046174A2260174A1568E56014600025E5
:10062000A5606560144A2261144A22601432226176
:1006300001226276E06184F82030A5626161059A4A
:1006400062629DF8102084F82320194600F0DFFA3A
:100650002046FFF7CBFF84F8220094F8233023B123
:10066000B0FA80F0400984F82200204638BD00BF6F
:10067000088600101810002018860010248600102C
:10068000F0B5F9B003F0D6FD212000F0F7FA41F201
:10069000883001F0F5FC272326222521242000F0B4
:1006A00041FB00F059FB0446014676A800F06AFBC6
:1006B0002146524803F028FE779B032B00F29980D5
:1006C000DFE803F0028B8F934D4803F0EEFD4D4BB6
:1006D00078AA12E9030083E803004B4B009302233E
:1006E000012200214948006800F080FB484806F0DC
:1006F0004BFE484803F0D9FDFFF7B6FE642001F039
:10070000BFFC454803F0D1FDFFF7CAFE434803F0A4
:10071000CCFD322500950123082241496BA8FFF743
:10072000EBFE0095012309223E4960A8FFF7E4FE95
:100730003D4E0124019407230093062332463B4992
:1007400054A8FFF715FF01940827009709233246A4
:10075000374948A8FFF70CFF009523460A22354980
:100760003DA8FFF7C9FE01940E2300930F233246E4
:10077000314931A8FFF7FCFE304E01940923009364
:100780003B4632462E4925A8FFF7F2FE01940B2383
:1007900000930A2332462B4919A8FFF7E9FE019579
:1007A000002300930D23324627490EA8FFF72EFFA2
:1007B000009523460F22254903A8FFF79DFEFFF76A
:1007C00003FE234803F071FDFFF706FE00F068FA10
:1007D0000A20002101F042FCF6E71E4803F065FD07
:1007E00075E71D4803F061FD71E71C4803F05DFDEE
:1007F0006DE71B4803F059FD69E700BF007A001060
:10080000187A00101C10002090D00300D80D002092
:10081000B5020010687A0010807A0010A87A0010E3
:10082000CC7A0010DC7A001054180020E87A00100E
:10083000F47A0010047B0010107B00105C1800207C
:10084000207B0010347B00103C7B0010487B0010A4
:10085000547B0010247A0010307A0010447A001083
:10086000587A001038B50446FFF7C0FE054694F8E4
:10087000233013B1B0FA80F56D0901F0EDFC11B32E
:100880004FF47A72002307F04FF894F82120AA421F
:1008900002D0A06284F82150A26A831A626A93424D
:1008A00010D394F8212094F822309A420AD060693B
:1008B000012D0DD00749FFF7A5FD18B194F821309F
:1008C00084F8223038BD044BA3FB00239809DCE7F1
:1008D0000249F0E748810010D34D62104C7D0010B2
:1008E00008B50346027E3AB1C06928B1194491F8AF
:1008F000201000F0ACF904E00B4493F82000FFF75F
:100900009DFC08BD70B582B0044601F0A5FC01B3A2
:100910004FF47A72002307F007F8054600212046BD
:10092000FFF7DEFF064601212046FFF7D9FFAEB1F3
:10093000A0B1E36A5BB3E36AEB1A626A93420FD336
:1009400094F92230012B24D1012384F82330A562AD
:100950001BE0234BA3FB00308509DFE70023E362A4
:1009600046BB90B1002394F923209A4202D084F828
:100970002330A562A36AED1A636A9D4205D394F9F8
:10098000233094F92220934219D102B070BDE56260
:10099000D1E701AE0123134A0321304603F0B8FA30
:1009A00031466069FFF72EFD0028CDD0012384F881
:1009B0002230C9E708B90223D5E70123D3E701AD07
:1009C000084A0321284603F0A3FA29466069FFF785
:1009D00019FD0028D9D094F9233084F82230D4E7C7
:1009E000D34D6210707B001008B5FFF78BFC08BD7B
:1009F000002280F8582080F8592080F85A2080F88A
:100A00005B2002700274704770B504460E4603788E
:100A1000013B052B07D8DFE803F0030E1D21282F2B
:100A2000616002230370552E5CD000232374237C65
:100A3000042B5CD070BD436843EA012343604268E5
:100A400045F255539A4202D003230370EBE700238B
:100A50000370E8E7A16004230370E4E7836843EAD6
:100A60000123836005230370DDE7E1608368013BB8
:100A7000836006230370D6E7C36843EA0123C3609B
:100A80008368013B836065695DB1EA8863689A4267
:100A900007D22B685B682846984763699B68636147
:100AA000F1E745B9636802336360A368BBB901230A
:100AB0002370B8E7AD68002DF4D0AB88626893422C
:100AC000F0D862689342F5D8EA8863689A42F1D315
:100AD0006168E2682B681B6828469847EAE70523A7
:100AE0002370A0E7237C0133DBB223749FE701234B
:100AF000237000232374024B1B6863619AE700BFD5
:100B00002410002001600271704700B585B08DF897
:100B10000C108DF80D2000230093022303AA017905
:100B2000006806F0DFFD022814BF0020012005B098
:100B30005DF804FB38B505460C460A461121FFF75F
:100B4000E4FF034608B9184638BD002204212846B0
:100B5000FFF7DBFF03460028F5D0002205212846D9
:100B6000FFF7D3FF03460028EDD0102C1ED0002243
:100B700012212846FFF7C9FF03460028E3D00022D0
:100B800013212846FFF7C1FF03460028DBD0FF22D0
:100B900002212846FFF7B9FF03460028D3D0FF22E1
:100BA00003212846FFF7B1FF0346CCE7FF221221BD
:100BB0002846FFF7AAFF03460028C4D0FF221321CE
:100BC0002846FFF7A2FF03460028E0D1BBE730B577
:100BD00085B0044615468DF80F10012300930DF1E2
:100BE0000F020179006806F07DFD012802D0002087
:100BF00005B030BD0023009301232A4621792068E7
:100C000006F07CFD012814BF00200120F0E770B53C
:100C100082B0054607290BD8042601F007040DF120
:100C2000070231462846FFF7D2FF18B902B070BD5F
:100C30000526F2E70123A3409DF807201A43D2B20C
:100C40008DF8072031462846FFF75FFFEEE710B525
:100C500082B001F007040DF10702072994BF0021BB
:100C60000121FFF7B4FF034610B9184602B010BDCA
:100C70009DF80730234103F00103F6E710B5074C58
:100C8000206000F0FBFA23684FF0010242EC443090
:100C90004FF0000242EC403010BD00BF8C1000202D
:100CA00008B501F0D9FAB1B14FF47A72002306F019
:100CB0003BFE0B4B1B68C31AB3F5FA7F0AD3094AF4
:100CC000137883F001031370074A126843EC402045
:100CD000034B186008BD054BA3FB00308009E8E713
:100CE000941000204A1D00208C100020D34D62106B
:100CF0001F280AD84FF050435B680122824003EA64
:100D00000200003818BF012070474FF050439B6825
:100D100020380122824003EA0200003818BF012077
:100D20007047000038B50B4C20706170A270E37002
:100D300000240BE0074D285D00F0A0FA285D00229A
:100D400042EC4400012100F07DFA0134032CF1DD76
:100D500038BD00BF8810002038B5002425460AE0C1
:100D6000074B185DFFF7C4FF80F00103DBB2A3401F
:100D70001D43EDB20134032CF2DD284638BD00BF1F
:100D80008810002001700F2915D8DFE801F0081144
:100D90001111111111111111111111110E0B00234B
:100DA00043607047022343607047032343607047EA
:100DB00001234360704704234360704710B483B03D
:100DC00000210DF1070209E0836913F0100FFBD138
:100DD0000468134603F8014B01311A460029F3D089
:100DE0009DF8070003B05DF8044B7047F8B50F4657
:100DF0001646114C2060114D2B60069901F0E4FA63
:100E00000221384600F002FA0221304600F0FEF9D5
:100E1000286800F033FA2A68012545EC44200023B5
:100E200043EC40202A460821206801F09EFA29461A
:100E3000206801F0B0FAF8BD841000209010002066
:100E4000034B1B684FF0010242EC4030704700BF7B
:100E500090100020034B1B684FF0000242EC403022
:100E6000704700BF9010002010B582B00446FFF715
:100E7000E7FF0E4B1A688DF8074000200DF10701BF
:100E800009E0936913F0200FFBD10B4613F8011B07
:100E90001160013019460028F3D0936913F0080F50
:100EA000FBD1FFF7D7FF02B010BD00BF84100020B8
:100EB00008B5074B1A68936913F0080FFBD14FF47C
:100EC000C870002101F0CAF8FFF7C4FF08BD00BFD9
:100ED0008410002010B582B00446FFF7B1FF0FE088
:100EE000936913F0200FFBD1034613F8010B106038
:100EF000013118460029F3D06420002101F0AEF83A
:100F0000207858B1074B1A68916911F02001F9D186
:100F100001348DF807000DF10700EBE7FFF7C8FF7C
:100F200002B010BD84100020044B1B68986900F0CB
:100F30001000B0FA80F04009704700BF8410002014
:100F400008B5024B1868FFF739FF08BD8410002070
:100F500010B508E0FFF7E8FFB0B94FF050431B6D44
:100F600013F0010F53D101F081FB002003F066F96B
:100F700010F1020FEED004466422002306F060F95F
:100F8000E0B2FFF771FFE5E7FFF7DAFF254B1B78CB
:100F90006BB90F2806D8234B01221A70224B00226E
:100FA0001A70DAE76422002306F04AF9D5E70A2826
:100FB00009D01D4B1B787D2B05D8591C1A4A11707E
:100FC0001A4AD054C9E7184B1B78184A0A21D15441
:100FD00001330024D45407E0642200231349085D40
:100FE00006F02EF90134E4B20F4B1B78A342F3D87C
:100FF000642200230A2006F023F90C490C4803F070
:1010000083F90023074A1370074A1370A5E706F017
:1010100049F9C0B203F03AF90A20002101F01EF8A4
:10102000A1E700BF4C1D00204B1D002098100020A0
:10103000747B001010B505E04FF050431B6D13F0AA
:10104000010F0CD101F012FBFFF76EFF0028F3D067
:10105000FFF776FF6422002306F0F2F8ECE71E4B60
:101060001B78EBB906F01EF9C4B22046FFF7FCFE70
:101070001A4A1368581C1060194AD4540A2C1ED0FE
:10108000164B1B687E2BDDD915490024CC5415481E
:1010900003F03AF9114B1C600F4B01221A70D1E793
:1010A000114C2078FFF7E0FE21780C4A1368581C99
:1010B00010600B4AD154084B00221A70D2E7114637
:1010C00000241454094803F01FF9044B1C60024B20
:1010D00001221A70D4E700BFDC0D00201811002097
:1010E0001C1100208C7B00101C100020787B00104D
:1010F00008B505E04FF050431B6D13F0010F0CD104
:1011000001F0B4FA002003F099F810F1020FF1D0C9
:101110006422002306F094F8ECE706F0C3F8C0B2AE
:1011200003F0B4F80A20002100F098FFE8E700007F
:1011300010B52E4803F0B9F82D4803F0B6F836E0A4
:10114000C4B2204603F0A2F80D2C0BD00A2C09D013
:10115000284B1B787E2B32D8591C264A1170264A00
:10116000D4542CE0234B1B78234A0021D1541BB9C3
:10117000204B00221A7022E0144611461F4803F04B
:10118000C3F82046FFF7A6FE0A20FFF76DFEFFF723
:101190008FFEEDE71A4B1B781A4A0021D15403BB8E
:1011A000174B00221A700A20002100F057FF01F0AF
:1011B0005DFA002003F042F810F1020FC0D1FFF7F2
:1011C000B3FE0028EFD0FFF7BBFE0A28E2D00C4B9D
:1011D0001B787E2BDED8591C094A1170094AD0545D
:1011E000E1E71146084803F08FF8D9E7B07B00101B
:1011F000CC7B00104D1D00209C110020FC7B0010BA
:101200004E1D00201C120020187C00100C4B03EB1C
:10121000800253F8203083F0400303F0C00302F54E
:10122000805CCCF80030C00000F1804000F5203038
:10123000416002F540524FF480731360704700BF65
:101240000480034010B40C4C04EB800C79B10823EB
:101250007AB10422134354F82020534003F00C03C6
:101260000CF5805CCCF800305DF8044B704700232F
:10127000EEE70022EEE700BF0480034008B54FF020
:10128000000242EC440042EC40000521FFF7BEFFA3
:1012900008BD00000FB400B583B0049C074803F0FC
:1012A00004F83CB105A90191204603F00DF804486B
:1012B00002F0FBFF012002F051FE00BF347C001061
:1012C000307C0010EFF3108072B6064BD3E8CF1FCE
:1012D00001220029FAD1C3E8412F0029F6D1BFF33A
:1012E0005F8F70474B1400200023034AC2E88F3FF2
:1012F00080F31088704700BF4B14002070B505467E
:101300000C461646FFF7DEFFE208A95C04F0070C66
:10131000012303FA0CF3194205D1DBB20B43AB54A2
:10132000FFF7E2FF70BD21463046FFF7B3FFF8B587
:1013300006460D4614461F46FFF7C4FF00E0013481
:10134000BC420ED84FEAD40C16F80C1004F0070378
:1013500001229A401142F2D1D2B20A4306F80C207F
:1013600001E04FF0FF34FFF7BFFF002C01DB204608
:10137000F8BD002DFBD00698FFF78CFF054A1078CA
:10138000431CDBB21370172B02D9134610221A70BC
:10139000704700BFDD0D002000B583B00146054B4E
:1013A00000931F2318220448FFF7C1FF03B05DF824
:1013B00004FB00BF447C0010741800204FF0E022B2
:1013C000936843F00053936070470000002305E0EA
:1013D000044A1A440021C2E88F1F01331F2BF7D99A
:1013E000704700BF40140020064B9B68103043F844
:1013F0002010BFF35F8F00230349C1E88F3F82F3C2
:101400001088704700ED00E0491400200048704744
:1014100000E400E008B5FFF7F9FF002304E04FF017
:10142000803240F8042B01330C2BF8D908BD0000A2
:1014300008B50388DA0A1C2A06D15B050BD45B15B4
:10144000023300EB430008BD064B074A40F215117A
:10145000064802F089FD03F5FF1303F5FF531F3320
:10146000EDE700BF607C001084860010787C0010DF
:1014700008B5091A01F2FC7240F6FE739A4208D8C8
:10148000081F11F0010F04D1C0F34A0040F460407E
:1014900008BD034B034A40F20711034802F064FD04
:1014A000C07C001078860010787C00104209064B42
:1014B00053F8223000F01F000122824003EA0200AC
:1014C000003818BF0120704700E100E03AB1064B38
:1014D00000F1600243F8221043F8201070472030DA
:1014E000014B43F82010704700E100E008B50A46C0
:1014F00000F01F03012199404009FFF7E7FF08BDF5
:1015000000F01F024009012393404030014A42F895
:101510002030704700E100E0024B9B68103053F828
:101520002000704700ED00E008B5FFF7F5FF034B22
:10153000C01A2F288CBF0020012008BDE00D00201C
:1015400070B505460C46EFF3108672B60F4BD3E824
:10155000CF1F01220029FAD1C3E8412F0029F6D17B
:10156000BFF35F8FFFF7D8FF094B984201D0A0422D
:1015700005D1324621462846FFF736FF70BD054BA0
:10158000054AE721054802F0EFFC00BF491400209E
:101590001D010010F07C0010AC860010787C00105B
:1015A0002DE9F04F87B000911546EFF3108A72B61F
:1015B0007C4BD3E8CF1F01220029FAD1C3E8412F89
:1015C0000029F6D1BFF35F8F774B93F90040002CD1
:1015D00044DB804604EB4407744B03EB870797F921
:1015E0000610714A1170724A926800F1100152F8A7
:1015F0002190A9EB03022F2A3ED96E4B994534D195
:101600004FF42143ADF80C304FEA440904EB440099
:10161000664E06EB800068490230FFF729FFADF8FF
:101620000E004BF60153ADF81030FF238DF8123049
:101630008DF81350009B0593A14406EB890306AA7D
:1016400012E9070083E8070047F0010952464946BE
:101650004046FFF7C9FE07B0BDE8F08F574B584A28
:1016600040F27311574802F07FFC574B544A4FF435
:10167000BD71544802F078FC29F0010BABEB030379
:10168000524AA2FB0312D20802EB4202B3EB820FD2
:101690000FD15B460026DA79AA4212D993F90620C7
:1016A000002A0DDB02EB42021E46404B03EB820395
:1016B000F1E7474B424A40F28B11424802F054FC9A
:1016C0001E46A6B344F60103ADF80C304FF48F4329
:1016D000ADF80E3096F906B0BBF1000F1ADA4BF6F2
:1016E0000150ADF810008DF812B08DF81350009B2A
:1016F00005933946301DFFF7BBFEB080B47104EB93
:1017000044042A4B03EB840306AA12E9070083E88A
:1017100007009BE7301DFFF78BFE014604EB4402F8
:10172000224B03EB8203181DFFF7A2FED9E74FF40B
:101730002143ADF80C306300019304EB4406DFF85D
:101740006C9009EB86061C49B01CFFF791FEADF8C2
:101750000E005946301DFFF78BFEADF810004AF61B
:10176000AA235A464946521A524153431B0D8DF83B
:1017700012308DF81350009A0592019B234409EB17
:10178000830906AB13E9070089E8070044F6010363
:10179000ABF800304FF48F43ABF8023047F001094B
:1017A00054E700BF49140020521D0020E00D002026
:1017B00000ED00E01D010010100E0020287D00103B
:1017C00094860010787C0010507D0010ABAAAAAA65
:1017D000787D001038B540F00104324BE31A2F2B0E
:1017E00031D8EFF30581C9B2002933D0EFF3108E61
:1017F00072B62D4BD3E8CF5F0122002DFAD1C3E89A
:10180000452F002DF6D1BFF35F8F4AF6AA2302467B
:10181000244D521B524153431B0D4FFA83FC234B63
:101820009B6853F82130A3421BD00023032B32D8EE
:1018300003EB43011B4A02EB810292F90620624549
:1018400020D00133F2E71A4B1A4A4FF41D711A489F
:1018500002F08AFB194B174A40F27721164802F032
:1018600083FB124B9B68164A43F82120154B1A78CC
:10187000827183F800C000230B4AC2E88F3F8EF3C9
:10188000108838BD074A02EB8101FF248C714BF6AA
:1018900001538B80EAE70C4B064A4FF4227106484D
:1018A00002F062FBE00D00204914002000ED00E092
:1018B000FC7D00105C860010787C0010247E0010F7
:1018C0001D010010521D0020307E001000B583B0B5
:1018D0000146074B0093052300220648FFF727FD2A
:1018E000002801DBC0F1330003B05DF804FB00BF4A
:1018F000387E0010561D0020014B0B4403607047DA
:101900004014002010B50446FFF738FD014620467C
:10191000FFF7F2FFFF232371BFF35F8F10BD10B5F8
:101920000446FFF72BFD01462046FFF7E5FFFF23A6
:10193000237100236371BFF35F8F10BD10B50D4C91
:1019400009E00D4B0D4A1A210D4802F00DFB20460F
:10195000FFF7D8FF08340B4B9C4209D22368002BB9
:10196000F5D0012BEDD12046FFF7D9FF0834F2E77F
:1019700010BD00BF800E0020547E0010EC860010C9
:10198000747E0010900E0020024B0B440360BFF3E6
:101990005F8F70474014002010B504460120FFF708
:1019A000FBFC01462046FFF7EFFF10BD0246EFF3B8
:1019B0000583DBB2103B990804D0034803F003030E
:1019C000136070470148F9E700800B4000000B40AE
:1019D00010B4846AA2EB040C0B1D50F823301B1BBF
:1019E0009C4504D3046A01238B401C4202D104317C
:1019F00040F821205DF8044B704741EA00407047F1
:101A00000D4B1A68EFF3108172B6D2E8CFCF0120E8
:101A1000BCF1000FF9D1C2E84C0FBCF1000FF4D1BA
:101A2000BFF35F8F1A680023C2E88F3F81F31088ED
:101A300040BF002000217047281D00202DE9F04FF5
:101A400085B003A8FFF7B2FF954B984214BF00235F
:101A50000123039901EB8303924A52F82340237830
:101A6000994206D1054601228A4000F541535A6049
:101A70002CE18D4B8D4A92218D4802F075FAD4F8F5
:101A8000149006EB46074FEAC70A09EBC707D7F8D9
:101A900008B0D7F80C80284600F0B4FBB0EB0B0080
:101AA00061EB0803002BC0F21A81B8F1000F64DB70
:101AB0003B691A4600937F4B9A4230D0798889B2AD
:101AC000B4F90800FFF799FF7969009B98470090E7
:101AD00001910099019A51EA02034ED01346002A5F
:101AE00029DABBEB010268EB0308BA60C7F80C8087
:101AF00039F90A70002FC0F2F280D4F814E007EB35
:101B000047030EEBC3039968DB68511A68EB0303C4
:101B1000002BC0F2E480A4462CF8087F17E07A6915
:101B2000136900921046984738B3009A13680093DF
:101B300053680193CDE7284600F064FB009B1A1818
:101B4000019B43EB0108D0E79C463EF90B70002F48
:101B50000EDBBCF9003003EB43034FEAC30B0EEB83
:101B6000C3039868D968101A68EB01010029EBDA01
:101B700029F80A70ACF80060B1E039F90A30238125
:101B80002369EFF3108272B6D3E8CF0F012100284A
:101B9000FAD1C3E8401F0028F6D1BFF35F8FB4F934
:101BA000023029F80A30668021690023C1E88F3F9E
:101BB00082F3108893E02369EFF3108272B6D3E8C2
:101BC000CF0F01210028FAD1C3E8401F0028F6D129
:101BD000BFF35F8FB4F804800FFA88F84FF6FF73F5
:101BE000A38021690023C1E88F3F82F310881AE0A7
:101BF0001F4630F90A60002E0FDBB7F9003003EB07
:101C000043034FEAC30A00EBC3039968DA68BCEBED
:101C100001016EEB0202002AEADAA7F8008030F92F
:101C2000098020F80960B8F1000F5DDB606908EBFE
:101C300048034FEAC30900EBC303D3F808C0D3F845
:101C40000CE004F10807B4F90860D4E70023A3719D
:101C500004F1080CB4F9083010E04FF0FF384FF0F1
:101C6000FF39C0E90289B4F90800984205D0ACF800
:101C70000020B4F90800C85323811346B3F1FF3F95
:101C800035D0616903EB4302D70001EBC20031F9A3
:101C90003220468816F4004FDFD18446EDE700BFBE
:101CA00000800B40001D0020087F001018870010E6
:101CB000347F00103D1A0010284600F0A3FA3F1AA6
:101CC00066EB0106012F76F1000628DA039A01235C
:101CD0009340EB63B4F90860002EBFF6D0AEA38842
:101CE00013F4004F3FF467AFA379002BAED1B4F9E2
:101CF0000830002B13DB626903EB430302EBC303E1
:101D00009F68DE68B6F1FF3F08BFB7F1FF3FD3D051
:101D10003A46334603992846FFF75AFECCE740BFC0
:101D200005B0BDE8F08F00BFF8B504460D4611467A
:101D30000A4B984210D000262E44012707FA05F5D9
:101D400025623046FFF7FCFB39463046FFF7CEFBF5
:101D500004F501542560F8BD0426EDE700800B4032
:101D6000F8B504460E4617461D46C160FFF706FB50
:101D7000164B034423612770ABB263814FF050428E
:101D8000127862704FF6FF722281A280013B63805D
:101D90004FF0000C08E00CF1FF300CEB4C0E6369C7
:101DA00023F83E000CF1010CAC45F4D3084B9E42E5
:101DB00014BF0023012307EB8303064A42F82340A4
:101DC000054A39463046FFF7AFFFF8BD4014002002
:101DD00000800B40001D00203D1A001008B5054B87
:101DE0001B690BB1034808BD034B044A6521044835
:101DF00002F0BAF8280E0020747F0010008700104F
:101E0000347F0010F8B504469E460069EFF3108158
:101E100072B6D0E8CF6F0125002EFAD1C0E8465F38
:101E2000002EF6D1BFF35F8FB4F90250666905EB5F
:101E30004500C70006EBC000002D03DB36F907C0E4
:101E4000A4F802C04FF0000C2369C3E88FCF81F3E0
:101E50001088654533DB069901610799416182600D
:101E6000C0F80CE0418889B20131C1F30E0101B91B
:101E7000012141802846FFF7C0FD2369EFF310825E
:101E800072B6D3E8CFCF0121BCF1000FF9D1C3E87E
:101E90004C1FBCF1000FF4D1BFF35F8FA388F35345
:101EA000A58021690023C1E88F3F82F31088E36891
:101EB000217801228A4003F501535A60F8BD4FF0A2
:101EC000FF30FBE770B582B0064615461C469DF80C
:101ED000203033B900F0C0F9854264EB01010029DC
:101EE0000ADB079B0193069B00932A462346304654
:101EF000FFF788FF02B070BD0020FBE7F0B585B0AA
:101F000005460C4616461F46FFF768FF9DF8283029
:101F10000293019700962A462346FFF7D3FF05B0A8
:101F2000F0BD03464089B0EB214F31DD10B50A14F6
:101F3000586902EB420200EBC2001A69EFF3108C01
:101F400072B6D2E8CF4F5FF0010E002CF9D1C2E893
:101F500044EF002CF5D1BFF35F8F428892B289B273
:101F60008A420FD0002019690022C1E88F2F8CF31C
:101F7000108830B1DA681B780121994002F50153CD
:101F8000596010BD42F40042428001209871EAE796
:101F90000020704710B50446FFF720FF2146FFF7E9
:101FA000C0FF10BD40787047F0B583B0EFF30583F4
:101FB000DBB2CBB904460D46861F41F1FF37B04274
:101FC00071EB070301D20026374600F045F9301ABD
:101FD00067EB0103012873F1000308DA2046294664
:101FE00000F04CF903B0F0BD1848FFF753F9002397
:101FF0000093174A30463946FFF780FF002819DA68
:10200000ECE7144B1A68EFF3108172B6D2E8CFCF29
:102010000120BCF1000FF9D1C2E84C0FBCF1000F58
:10202000F4D1BFF35F8F1A680023C2E88F3F81F3BA
:10203000108820BF084B5B6A9F42E2D8064A926A2A
:10204000B242CBD29F42C9D1DBE700BF987F0010DC
:10205000011A0010281D002000000B4038B504466E
:102060000D4600F0F9F8201845EB0101002902DBCC
:10207000FFF79AFF38BD4FF0FF306FF00041F7E7F0
:1020800008B5C30E4101091A63F100039B0043EA3E
:1020900091738900091843F10003DB00C80043EA8B
:1020A0005171FFF7DBFF08BDF0B583B005460C4664
:1020B000EFF30583DBB293B1384B5B6A8B4209D3F4
:1020C000364A926A824208D28B4201D0012002E055
:1020D000002000E0002003B0F0BD0120FBE7FFF787
:1020E0007DFEC7680678384600F08CF82A1A64EB43
:1020F0000101043657F826301B1A9A4271F100018B
:1021000012DB20BF254B5B6A9C4209D8234A926AA6
:10211000AA4207D29C4201D00120DCE70020DAE786
:102120000020D8E70120D6E7002300931C4A284668
:102130002146FFF7E3FE002818DD184B5B6A9C423E
:1021400005D8164A926AAA4202D29C4200D120BF08
:10215000FFF720FF114B5B6A9C421BD80F4A926A23
:10216000AA4219D29C4213D00120B4E70B4B5B6A00
:102170009C4209D8094A926AAA4207D29C4201D0DD
:102180000120A8E70020A6E70020A4E70120A2E79D
:102190000020A0E700209EE701209CE700000B4004
:1021A000011A00100048704700000B4010B50A4BA0
:1021B0001B6923B10A210948FFF79EFB10BDFFF7F9
:1021C000F1FF0446032100F00BF8102303222146FF
:1021D0000148FFF7C5FDEDE7280E0020281D00206F
:1021E00010B5054A054C064BA04214BF1846581CB2
:1021F000FFF784F810BD00BFE87F001000800B409F
:10220000781800200246436A906A1946536A994238
:10221000FAD17047416A00E0416A9942FCD300E07C
:10222000416A994202D1816A9142F9D3704770B5EF
:10223000064614461D46FFF7E5FF021941EB05036C
:10224000824273EB010102D24FF0FF321346304657
:10225000FFF7E0FF70BD000008B50248FFF7D2FFAE
:1022600008BD00BF00000B4008B502460B460248FF
:10227000FFF7DDFF08BD00BF00000B4008B50246B8
:102280000B460248FFF7C6FF08BD00BF00000B4029
:10229000074B98420AD01A2301229A40054B1A6034
:1022A000054B9B6832EA0303FAD170471B23F3E71F
:1022B00000800740003002400000024038B5046B47
:1022C00014F0010F01D1204638BD00F5405340F213
:1022D00001321A63436A856A05EB8315AD02062055
:1022E00000F006F9044BA3FB0030C00AB5FBF0F088
:1022F0000021FFF7B9FFE6E7757B2B8F70B5054628
:102300000C461646FFF7DAFFEB6A5C40344005F5F1
:102310008153DC60286370BD70B505460C4606200D
:1023200000F0E6F8C300B3FBF4F30133DC0907D097
:102330004FF6FE72944214D82646C3F3450400E0DB
:1023400001266E62AC62002211462846FFF7D6FFD6
:10235000062000F0CDF8800004EB8614B0FBF4F00A
:1023600070BD00244FF6FF76EBE708B5A1F1050C30
:10237000511EC90041EA4C113BB141F00201012B51
:1023800001D0002302E0042300E000236E22194361
:10239000FFF7B4FF08BD08B501B110211022FFF707
:1023A000ADFF08BD49B10A22054B984214BF002079
:1023B0000120044B23F8102070474FF48072F3E79C
:1023C00000800740341D002038B504460D46062025
:1023D00000F08EF8F8B1114B9C421DD01A22012357
:1023E00093400F4A13602046FFF752FF002120461A
:1023F000FFF7D8FF29462046FFF78EFFE36A83F0F8
:10240000700303F07E0304F58152D36040F2013380
:1024100023630323A36438BD1B22E0E70080074049
:102420000020024070B51646049D00EB400C4FEAB8
:102430008C0C0CF1804C0CF5803CDCF80420AA429A
:1024400001D2CCF80450A0F1040E5FFA8EFEBEF16A
:10245000010F28D90CF540524FF4006414601E4A55
:1024600052F8202042B11C4C6469B4FBF2F40134F0
:1024700004EB4404033CFDD2DCF8002082EA46125F
:1024800002F0E0020CF580542260BEF1010F16D973
:102490000CF500524FF400611160CCF804500E4A64
:1024A00042F8203070BD0129D4D10CF540520324EC
:1024B0001460DCF8082012F0010FFAD0DCE7DCF839
:1024C00000204A4002F003022260DCF808400122AA
:1024D0008A401442F9D0DBE77C18002010B582B0A6
:1024E0004FF480340094FFF79DFF02B010BD000050
:1024F000014B53F8200070477C18002070B5049CF5
:10250000344DB5FBF1FC344D1544344EB54237D84B
:10251000B2FBFCF5A5F1100EBEF5987F36D803F19D
:10252000FF3EBEF1060F37D804F1FF3EBEF1060FA5
:1025300032D8BCEB121F35D8240344EA03440368A5
:10254000002B35DB264B984242D00E2301229A40C5
:10255000244B1A6003F580531A60234B9B6832EAC0
:102560000303FAD10160856000F540520432212353
:1025700013600368002BFCDAC4600823136070BD8D
:102580001A4B1B4A11211B4801F0EEFC1A4B184A4A
:102590001921184801F0E8FC184B154A1C21154870
:1025A00001F0E2FC164B124A2321124801F0DCFC38
:1025B000036803F03F038B42C4D18368C3F30B036A
:1025C000AB42BFD1C36803F4EE23A342BAD1D6E72E
:1025D0000F23BBE7001BB70080E84BD380F8A9327C
:1025E0000080054000200240000002400C800010E6
:1025F000308700105C800010A4800010C0800010A4
:102600000C81001070B504460D4616460023DB8A87
:10261000002242E800F212F4800F09D1102145F2A5
:10262000473098470346324629462046984770BDB2
:10263000042145F2473098470346F4E700B587B0D8
:102640004022052101A8FFF7DDFF052807D1019BE6
:10265000402B07D19DF8090007B05DF804FB6FF02F
:102660000F00F9E76FF00F00F6E70000024B1A6861
:10267000024B5A60704700BFD81C002000800D40FC
:1026800008B5164B4FF080421A60A3F54123144A57
:102690009A6051B103F540234FF0E0621A6048B9E7
:1026A000104B4FF000421A6008BD0C4B4FF0E06237
:1026B0001A60F4E74FF47A7303FB00F00A4B1860DA
:1026C000B0F1807F02D36FF07F421A60FFF7CEFF38
:1026D000044B4FF080421A60E6E700BF00B00D40A7
:1026E000F3FFFF0100A00D40D81C002008B5034BEC
:1026F000034ADA61FFF7C4FF08BD00BF00800D4048
:102700002131B76A10B50C4B4FF080441C6070B19A
:1027100040F0010309480A4CC4610A4C5C40046261
:102720004162836200211046FFF7AAFF10BD034BF0
:102730000021D961F6E700BF00B00D4000800D40D8
:10274000D3C007B02D3FF84F08B5094B9B680BB9B4
:10275000002008BDFFF772FF002804DB30F0800383
:1027600003D10120F5E70020F3E70020F1E700BFE7
:1027700000800D40054A00EB400302EB83035960E3
:1027800000EB400080000123135070470080104090
:102790002DE9F04105460E46174698460023DB8A90
:1027A000002242E800F212F4800F0BD1102144F213
:1027B00052209847044643463A4631462846A047A9
:1027C000BDE8F081042144F2522098470446F2E724
:1027D00008B50023DB8A002242E800F212F4800FE1
:1027E00002D11021984708BD04219847FBE708B59E
:1027F000031E04DB41F020003AB141F030010A46EB
:102800000A214FF48170FFF7C3FF0146F7E700008C
:10281000034BD3F82838002BFAD0BFF35F8F7047F3
:1028200000000E40002207E0054B13449B00BFF35D
:102830005F8F002119600132072AF5D9704700BF68
:102840000382031008B5FFF7EDFF08BD074B4FF4F7
:102850002A621A604FF48D72DA6003F50053044A5D
:102860001A60024B5B68002BFBDA70470080044063
:1028700000B0FA0010B5044602E054F8043B984753
:10288000014B9C42F9D310BD9879001070470000AD
:1028900008B50248FFF7EEFF08BD00BF58790010E9
:1028A00008B50248FFF7E6FF08BD00BF84790010B5
:1028B000064B074A1A6003F58053064A1A60064B16
:1028C0009A68044B9343FAD1704700BF002002403E
:1028D0007F3BEFEFF6FFF30300000240054BDB6C9C
:1028E000B3F5004F00D07047034B4FF48022DA64F9
:1028F000F9E700BF00001150002011504FF0E02216
:10290000D2F8881D034B0B43C2F8883D10EE30040B
:10291000704700BF03033000054B6FF060421A6040
:10292000044B9B68DB4333F06043F9D1704700BF31
:10293000003002400000024008B545F25320FFF786
:1029400047FF03460420984708BD08B545F25320C9
:10295000FFF73EFF03460120984708BD08B5FEF784
:1029600035FD08BD38B5054CA168054D4FF488729A
:10297000284604F01DFFA56038BD00BF00ED00E053
:102980000000002038B50420FFF7B2FD064BA3FB82
:102990000035AD0C002404E02946E0B2FFF7EAFE62
:1029A0000134052CF8DD38BD83DE1B4330B583B020
:1029B000264B0022C3F88420FFF748FF244B012256
:1029C000DA63224B5B6C012BFBD1214B03221A6390
:1029D0001E4B9B6B012BFBD10224009405231D4A47
:1029E00001211D48FFF78AFD052500952B461B4A4E
:1029F00001211B48FFF782FD1A4B002221460420CB
:102A0000FFF76CFD184C2346002201212846FFF7F2
:102A100065FD164D2B46002211460820FFF75EFD8E
:102A20002B46002211460920FFF758FD23460022BD
:102A300011460620FFF752FD2346002211460720CB
:102A4000FFF74CFDFFF79EFF03B030BD00000140D3
:102A500000300140002F685900000540008C864777
:102A600000800540001BB70080D1F008006CDC023C
:102A700086B003B451FC0804CDE9020151FC0904FD
:102A8000CDE9040151EC0A04CDE9060103BCF0478D
:102A9000BDE800504EEC00C4BDE800504EEC01C44F
:102AA000BDE800504EEC02C400BD000000B5FFF7C9
:102AB000DFFF02E010FE30F4F8D441EC100443ECE8
:102AC000112400EE010410EE010480EE200451EC0C
:102AD0001004704700B5FFF7CBFF02E010FE30F4A2
:102AE000F8D441EC100443EC112400EE010410EE84
:102AF000210480EE200451EC3004704700B5FFF74C
:102B0000B7FF02E010FE30F4F8D410B541EC100429
:102B100043EC112451EC040453EC0524A0FB024CBB
:102B20005FF0000EE0FB03CEE1FB02CE4CEC204454
:102B30000024E1FB03E444EC30E480EE200451EC9B
:102B40005004BDE81040704700B5FFF791FF02E068
:102B500010FE30F4F8D441EC100443EC112451EC95
:102B60002104A0FB01126FEA820252FB100052FB0B
:102B700012F252FB1000A0EBD07C53EC04245CFB5F
:102B800013F153EC1524A1FB022001FB030053ECCD
:102B90004424A2EB000050FB1CF24FEA111312EB8D
:102BA000017043EBE27140EA515020EA915020F06D
:102BB000070053EC7524A0FB023C53EC752400FB8A
:102BC00003CC01FB02CC53EC0424ACEB824C40EA76
:102BD0005C70A0F1010041EC400480EE200451EC57
:102BE0007004704700B5FFF743FF02E010FE30F4B9
:102BF000F8D440EC700400EE010410EE210480EEE5
:102C0000200451EC3004704700B5FFF731FF02E0BB
:102C100010FE30F4F8D440EC600400EE010410EE35
:102C2000210480EE200451EC3004704700B5FFF71A
:102C30001FFF02E010FE30F4F8D441EC800400EEF7
:102C4000010410EE010480EE400410EE13047047FE
:102C500000B5FFF70DFF02E010FE30F4F8D441ECB0
:102C6000800400EE010410EE010480EE400410EE3A
:102C70003304704700B5FFF7FBFE02E010FE30F4AE
:102C8000F8D441EC100443EC112400EE010410EEE2
:102C90003004C0F30070704700B5FFF7E9FE02E0B2
:102CA00010FE30F4F8D443EC102441EC110400EE93
:102CB000010410EE30F48CBF01200020704700BFEB
:102CC00000B5FFF7D5FE02E010FE30F4F8D443EC77
:102CD000102441EC110400EE010410EE30F42CBF7E
:102CE00001200020704700BF00B5FFF7C1FE02E0E1
:102CF00010FE30F4F8D441EC100443EC112400EE43
:102D0000010410EE30F42CBF01200020704700BFFA
:102D100000B5FFF7ADFE02E010FE30F4F8D441EC50
:102D2000100443EC112400EE010410EE30F48CBFCB
:102D300001200020704700BF9A4200D2885470479B
:102D4000704720B108B50A684968904708BD7047C8
:102D50000146002008E000EB8000531C0B60137854
:102D600003EB4003A3F130000A681378303BDBB279
:102D7000092BF0D970472DE9F04F83B005460E4678
:102D800093461F46DDF830A00D9CDDF838900F9B70
:102D900013F0030F19D1A046019208E002F1010BD4
:102DA0003B4631462020A84708F101085A46C8454D
:102DB000F4D3DDF804B008E0013C02F101083B4621
:102DC00031461AF80400A8474246002CF4D10F9B64
:102DD00013F0020F09D1104603B0BDE8F08F541C68
:102DE0003B4631462020A8472246A2EB0B034B4529
:102DF000F5D3F0E72DE9F04385B099460C9D0D9C85
:102E00009DF83880DDF840E0119F129E16F0020F09
:102E100021D17FB116F0010F0CD0B8F1000F02D113
:102E200016F00C0F06D0013F04E04FF0300C05F80F
:102E300004C00134744501D21F2CF6D916F0010FDD
:102E400009D0BC4207D21F2C05D84FF0300C05F832
:102E500004C00134F2E716F0100F14D016F4806F9E
:102E600004D11CB1744522D0BC4220D00F9B102B42
:102E700033D00F9B022B3DD01F2C0ED84FF0300CBF
:102E800005F804C001341F2C07D8B8F1000F39D061
:102E90004FF02D0C05F804C00134039602970194FD
:102EA00000954B46FFF767FF05B0BDE8F083B4F12E
:102EB000010C1DD00F9B102B0ED064460F9B102BC6
:102EC000D7D116F0200FD4D01F2CD2D84FF0580CE9
:102ED00005F804C00134CFE7023C16F0200FEDD115
:102EE0001F2CEBD84FF0780C05F804C00134C3E771
:102EF0006446BBE71F2CD0D84FF0620C05F804C025
:102F00000134B9E716F0040F05D04FF02B0C05F88B
:102F100004C00134C1E716F0080FBED04FF0200CFA
:102F200005F804C00134B8E7F0B591B0169C189DBF
:102F30001B9E0CB926F0100616F4806E1DD064B3EB
:102F40004FF0000E19E016F0200F24D04127BC44AA
:102F50005FFA8CFCACF10A0C5FFA8CFC0EF10107F5
:102F60000EF1400EEE440EF820CCB4FBF5FCAC4262
:102F700014D31F2F12D8BE466446B4FBF5FC05FBE4
:102F80001C4C5FFA8CFCBCF1090FDCD80CF1300C46
:102F90005FFA8CFCE2E76127D9E7274606961A9C80
:102FA0000594199C049403959DF85C400294019744
:102FB00008AC0094FFF71EFF11B0F0BD2DE9F04FF3
:102FC00095B009900A910B929846DDF878B0DDF83B
:102FD0007C90229D239F269E5BEA090201D126F068
:102FE000100616F4806424D05BEA09022FD0002476
:102FF0001FE016F0200F28D041231344DBB20A3B18
:10300000DBB204F1010A04F150020DEB020404F8F2
:10301000203C2A463B465846494604F085FCAB45D1
:1030200079EB070915D3BAF11F0F12D8544683461E
:1030300089462A463B465846494604F075FCD2B2BA
:10304000092AD6D83032D3B2DBE76123D5E74FF077
:10305000000A0696259B0593249B049303959DF8EF
:1030600080300293CDF804A00CAB009343460B9A3A
:103070000A990998FFF7BEFE15B0BDE8F08F000071
:103080002DE9F04F93B004460D4617461E46DDE984
:103090001CAB52465B4650465946FFF7EFFD0028F1
:1030A00040F0F3804FF0FF32AD4B50465946FFF7EA
:1030B00033FE002840F0E9804FF0FF326FF48013B8
:1030C00050465946FFF7ECFD002840F0DE80002214
:1030D000002350465946FFF7E3FD002840F0E68004
:1030E000CDE906AB209B13F480630F9301D1062337
:1030F0001E93DDE9062310461946CDE90A01079B18
:1031000052EA030100F0DC80C3F30A50C3F3130357
:10311000904643F07F5949F44019A0F2FF30FFF781
:1031200065FD7DA3D3E90023FFF7ECFC7CA3D3E985
:103130000023FFF7BFFCCDE908010022894B404680
:103140004946FFF7CBFC78A3D3E90023FFF7DAFC6D
:1031500002460B46DDE90801FFF7ACFCFFF76AFD0C
:103160000890FFF743FD8046894671A3D3E9002309
:10317000FFF7C8FC00227C4BFFF79CFCFFF75AFDD1
:103180000A906DA3D3E9002340464946FFF7BAFCF5
:10319000804689460A98FFF729FD69A3D3E90023F1
:1031A000FFF7B0FC02460B4640464946FFF796FC47
:1031B0008046894602460B46FFF7A4FCCDE90C0188
:1031C0000A9B03F2FF3300210022CDE90A121B05FE
:1031D0000B9300230A9342464B4640464946FFF76D
:1031E00069FCCDE9100142464B4600204FF080417A
:1031F000FFF774FC8046894600225C4BDDE90C0138
:10320000FFF7A6FC00225A4BFFF754FC02460B4680
:10321000DDE90C01FFF79CFC0022564BFFF74AFC4E
:1032200002460B46DDE90C01FFF792FC02460B4615
:1032300040464946FFF73EFC02460B46DDE91001D9
:10324000FFF786FC00224C4BFFF734FCDDE90A2334
:10325000FFF758FC80468946CDE90A89DDE9062357
:10326000FFF75AFD50B1089B013B08930022404BE9
:1032700040464946FFF76CFCCDE90A01089B6333E1
:10328000C62B46D84FF004081EE0209B04931F9BDA
:1032900003931E9B0293CDE900AB33463A46294681
:1032A000204600F0FDF813B0BDE8F08F9FED267BBF
:1032B0008DED067BCDF818A00BF10043079311E7C5
:1032C000002308934FF00408209B13F4006F5FD095
:1032D000DDE90A1213460B4313D01DA3D3E90023E3
:1032E000DDE90601FFF704FD002800F0B4801AA311
:1032F000D3E90023DDE90601FFF7D2FC002800F046
:10330000AA801E9A089B9A4238DDD31A013B1E936D
:1033100036E04FF00508D7E7FB799F501344D33FC1
:10332000B3C8608B288AC63F61436F63A787D23FCB
:1033300071A379094F930A401655B5BBB16B024092
:10334000EF39FAFE422EE63F0000000000000000C8
:103350002D431CEBE2361A3F0000000080842E4112
:10336000FFFFEF7F0000F83F0000E03F00002C402F
:1033700000002440000018400000F03F00231E938E
:10338000209B43F4806320934FF00008CDF8208009
:103390001F9B984569D2A3EB0809209B13F00203F9
:1033A0000C9304D0B8F1000F01D04FF00009089B36
:1033B0003BB1DDE90A23DDE90601FFF7C9FBCDE9F1
:1033C00006010022002350465946FFF769FC0028F9
:1033D0004ED1209B23F400630493CDF80C901E9BE8
:1033E00002939DED067B8DED007B33463A462946E0
:1033F000204600F055F8B8F1000F3FF454AF209B81
:1034000013F0200F3CD04FF0450C00F1010933467A
:10341000024629466046A047089981EAE172A2EB7C
:10342000E1720523059308F1FF330493002303930E
:103430000A230293CB0F0193009233464A46294652
:103440002046FFF771FD0C9B002B3FF42CAF02468A
:10345000DDF87C901EE01E9B002B99D00F9B002B6B
:1034600096D01E9B013B1E9392E74FF0000994E714
:10347000DDE90601024601F10043CDE90623A8E794
:103480004FF0650CC1E702F10108334629462020C0
:10349000A0474246D31B4B45F5D3104603E700BF78
:1034A0002DE9F04F2DED028B95B007900A919246D1
:1034B0009B46DDE92089229D42464B4640464946CF
:1034C000FFF7DCFB002835D14FF0FF326FF480139B
:1034D00040464946FFF7E4FB00283AD14FF0FF325F
:1034E000B14B40464946FFF717FC002840D1AAA33C
:1034F000D3E9002340464946FFF70EFC00284DD192
:10350000A7A3D3E9002340464946FFF7C9FB00289B
:1035100044D10022002340464946FFF7C1FB002862
:103520004AD100230B93249B13F4806F00F0B580E5
:10353000002454E0249B0393239B029303230193D1
:103540009A4B00935B4652460A990798FFF713FC83
:103550001BE1249B0393239B029304230193944B2D
:1035600000935B4652460A990798FFF704FC0CE16A
:10357000249B13F0040F0ED08E4B04222499039148
:1035800023990291019200935B4652460A9907984B
:10359000FFF7F1FBF9E0884B0322EFE7249B04934C
:1035A000239B03930295CDE900895B4652460A9915
:1035B0000798FFF765FDE8E042464B4600200021F2
:1035C000FFF78CFA8046894601230B93ABE704F1A1
:1035D00050036B44302203F8202C013D01341F2C92
:1035E00001D8092DF3D840464946FFF723FB06468C
:1035F000FFF7FCFA02460B4640464946FFF76EFAD3
:103600006E4B03EBC50393ED008B53EC182BFFF7C8
:1036100079FA02460B46CDE90823FFF71DFB074662
:10362000FFF7F6FA02460B46DDE90801FFF756FA06
:1036300002460B46CDE908230022614BFFF76CFBE5
:1036400068B301373846FFF7E3FA02460B4651EC00
:10365000180BFFF739FB08B1013600276DBB304668
:10366000FFF7C4FA02460B4640464946FFF736FAD2
:10367000074688460022524BFFF712FB00284CD128
:1036800000224F4B38464146FFF746FB002844D105
:1036900016F0010F41D001363FE0062548E7002231
:1036A000474BDDE90801FFF7FBFA0028D6D117B137
:1036B00017F0010FD2D00137D0E71F2C17D8013DEA
:1036C000404BA3FB0723DB08194603EB8303A7EB5F
:1036D0004303621C303304F150000DEB000404F886
:1036E000203C092F02D90F461446E6E714461F2C4A
:1036F0000AD86B1E45B104F150026A44302102F829
:10370000201C1D460134F2E71F2C06D804F150039B
:103710006B442E2203F8202C01341F2C17D82A4A80
:1037200082FB0632F317C3EBA2031A4603EB8303B3
:10373000A6EB4303611C303304F150000DEB000491
:1037400004F8203C16460AB10C46E6E70C46249BDA
:1037500003F00303012B39D01F2C09D80B9B002B3E
:1037600051D004F150036B442D2203F8202C013476
:10377000249B0393239B029301940CAB00935B4621
:1037800052460A990798FFF7F6FA15B0BDEC028B7E
:10379000BDE8F08FAFF300800000000065CDCD41A3
:1037A0000000000065CDCDC1FFFFEF7F90810010CC
:1037B00094810010848100108C810010A08700107B
:1037C0000000E03FCDCCCCCC67666666239BB3B1EE
:1037D0000B9B1BB9249B13F00C0F12D0239B013BB6
:1037E0002393194606E004F150036B44302203F89A
:1037F000202C01348C42AFD21F2CF4D9ACE7239992
:10380000F8E72399F6E7249B13F0040F07D004F19F
:1038100050036B442B2203F8202C0134A8E7249B8F
:1038200013F0080FA4D004F150036B44202203F8D6
:10383000202C01349CE700BF2DE9F04F8FB080466B
:1038400017460D938946002900F04F83002508E0B4
:103850006C1C3B462A464946C0470D9B01330D93DD
:1038600025460D9B1878002800F042832528EFD1CB
:1038700001330D9300261FE046F0010601320D9240
:10388000012318E046F0020601320D92012312E0F6
:1038900046F0040601320D9201230CE046F00806C2
:1038A00001320D92012306E046F0100601320D921E
:1038B000012300E000234BB30D9A1378203B102B1B
:1038C000F8D801A151F823F09D380010B538001048
:1038D000B5380010A9380010B5380010B538001000
:1038E000B5380010B5380010B5380010B5380010E4
:1038F000B538001091380010B53800108538001028
:10390000B5380010B5380010793800100A930D9BB7
:103910001A78A2F13003DBB2092B18D92A2A1BD05E
:103920000A9B0B930D9B1A782E2A25D00D9A13789B
:10393000683B122B5CD8DFE803F0495BAC5B3B5B78
:103940005B5B5B5B5B5B575B5B5B5B5BB1000DA8D1
:10395000FFF7FEF90B90E5E7189B1A1D18921B68FC
:10396000002B04DB0B930D9B01330D93DAE746F03C
:1039700002065B420B93F6E746F480665A1C0D92F2
:103980005A78A2F13003DBB2092B0CD92A2ACDD107
:10399000189B1A1D18921C6824EAE4730A930D9B65
:1039A00001330D93C2E70DA8FFF7D2F90A90BDE7E6
:1039B00046F48071531C0D9353786C2B01D00E4646
:1039C00016E046F4407602320D9211E046F0800196
:1039D000531C0D935378682B01D00E4608E046F037
:1039E000C00602320D9203E046F4807601320D9259
:1039F0000D9B1878672856D82528C0F06C82A0F156
:103A00002503422B00F26782DFE813F05A026502B9
:103A1000650265026502650265026502650265026E
:103A2000650265026502650265026502650265025E
:103A3000650265026502650265026502650265024E
:103A4000650265026502650265026502880168011A
:103A5000880165026502650265026502650265020C
:103A6000650265026502650265026502650265021E
:103A70006502710065026502650265026502650204
:103A80006502650265027100AF017100880168017D
:103A9000880146F4007601320D92A9E746F480765B
:103AA00001320D92A4E7782800F215826928C0F04F
:103AB0001282A0F16902D2B20123934049F241027D
:103AC000134214D113F0800F40F0DF8113F4806FA4
:103AD00000F00182189B1A1D1892D3F800A00A9BCF
:103AE000002B40F090814FF0FF32534674E16F2875
:103AF0003DD005D858283CD0622803D1022304E0E9
:103B0000782838D026F010060A23582835D069289E
:103B100003D0642801D026F00C0616F4806F01D083
:103B200026F0010669282BD0642829D016F4007FDE
:103B300040F0968016F4807F40F0AE8016F0400F83
:103B400000F0BF80189A111D1891127805960B99F4
:103B500004910A99039102930023019300923B463A
:103B60002A4649464046FFF7DFF9054629E0082383
:103B7000CBE71023C9E71023C7E746F02006C6E7C6
:103B800016F4007F21D116F4807F42D116F0400F49
:103B900058D0189A111D1891127882EAE271A1EB9F
:103BA000E27105960B9804900A9803900293D20F45
:103BB000019200913B462A4649464046FFF7B4F938
:103BC00005460D9B01330D934BE6189A073222F000
:103BD000070202F10801189151681268084600298D
:103BE00013DB08960B9C07940A9C0694049300230D
:103BF0000593C90F0291009201903B462A4649461F
:103C00004046FFF7DBF90546DBE7524261EB410036
:103C1000E7E7189A111D1891126882EAE271A1EB88
:103C2000E27105960B9804900A9803900293D20FC4
:103C3000019200913B462A4649464046FFF774F9F7
:103C40000546BEE716F0800F05D0189A111D189191
:103C5000B2F90020A1E7189A111D189112689CE78B
:103C6000189A073222F0070202F10801189108960B
:103C70000B9907910A9906910021049305910291ED
:103C8000D2E90023CDE900233B462A464946404677
:103C9000FFF794F9054694E7189A111D18910596B7
:103CA0000B9904910A9903910293002301931368DD
:103CB00000933B462A4649464046FFF735F90546FC
:103CC0007FE716F0800F04D0189A111D1891128802
:103CD0003CE7189A111D1891126837E746281AD048
:103CE000189B073323F0070303F108021892049688
:103CF0000B9A03920A9A0292D3E90023CDE900239A
:103D00003B462A4649464046FFF7CAFB05460D9BFF
:103D100001330D93A5E546F02006E1E7672801D0C1
:103D2000472801D146F40066452801D0472801D133
:103D300046F02006189B073323F0070303F108021F
:103D4000189204960B9A03920A9A0292D3E90023DE
:103D5000CDE900233B462A4649464046FFF790F905
:103D600005460D9B01330D937BE516F002061CD032
:103D700001241898031D189305F1010A3B462A46B1
:103D800049460078C047AEB90D9B01330D935546A7
:103D900067E5551C3B4649462020C04723462A4636
:103DA0005C1C9A45F5D81546E3E70123DDF82CA005
:103DB0002A46F5E75246DDF82CA006E0561C3B46A5
:103DC00049462020C0472C463246651CA245F5D8FE
:103DD0009246D9E701330A46197811B1511E002ADB
:103DE000F8D1A3EB0A0316F4806B03D00A9A93422E
:103DF00028BF134616F0020407D00C940A9E2A46E8
:103E00005D469B4623E00A9A6FE6CDF830B02A461D
:103E100025460B9C07E002F1010B3B46494620205A
:103E2000C04733465A465E1C9C42F4D8DDF830B099
:103E30002C4633460C940A9E5D469B4607E01E4680
:103E40000AF1010A541C3B464946C04722469AF8EB
:103E5000000020B1002DF3D0731E002EEFD10C9C7A
:103E600015465B461CB90D9B01330D93F9E40B9E7F
:103E700006E0551C3B4649462020C04723462A46BB
:103E80005C1C9E42F5D81546EDE746F02106189BCE
:103E90001A1D18921B680596082204920A9A03922A
:103EA000102202920022019200933B462A46494684
:103EB0004046FFF739F805460D9B01330D93D0E4DA
:103EC0006C1C3B462A4649462520C0470D9B0133C2
:103ED0000D932546C5E46C1C3B462A464946C0471F
:103EE0000D9B01330D932546BBE4DFF82080ADE444
:103EF000BD4208D37A1E3B4649460020C0472846AB
:103F00000FB0BDE8F08F2A46F5E700BF412D001045
:103F10000CB410B584B00A4606AC54F8043B0394C4
:103F2000009401460348FFF787FC04B0BDE8104049
:103F300002B07047392D001000B585B00290039192
:103F4000009313464FF0FF3202A90348FFF774FCB9
:103F500005B05DF804FB00BF432D001000BEFDE777
:103F600008B5FFF7FBFF000000B583B08C4619468B
:103F70005AB11446064B0194009363460246054825
:103F800000F0C2F90120FFF7E9FF034B1C46F2E7FE
:103F90009C810010AC810010147A001010B5EFF372
:103FA0000583DBB203B100BEFEF772FC044C02E0F5
:103FB00054F8043B9847034B9C42F9D310BD00BF13
:103FC00098790010A479001008B5034608461B68CC
:103FD0001146984708BD0000F8B507460D4616463D
:103FE000437D13B1002420460CE0036811462846A7
:103FF00098472EE03B7D10E03B680221154898472A
:10400000601C0134B44214DA002CF3DD2B1913F8D0
:10401000013C0D2B14BF002301232A5D0A2AF0D195
:10402000002BEED1A042E7DA3B68211A28449847DA
:10403000E2E7B04203DA3B68311A28449847002E81
:1040400007DD354415F8013C0D2B14BF0023012377
:104050003B75F8BD0C88001038B50368BBB1054648
:104060000B4B1C6806E0294651F8042B2046FFF74D
:10407000B3FF24694CB12368002BFAD0054B1B68B1
:10408000002BF0D0A342F4D1EDE700232B6038BD24
:10409000CC180020D418002038B505460C460B6813
:1040A000802B05D023685A1C22601C44257138BD22
:1040B0000846FFF7D1FFF5E708B5FEF7CDF8074A48
:1040C000821841F10003002B03DB054803F03CFCA0
:1040D00008BD4FF0FF326FF00043F6E740420F009B
:1040E000880E002008B5024803F022FC08BD00BF7E
:1040F000880E00202DE9F04383B006460D46904619
:104100001C46FFF7D9FF8146B5F1FF3F04D044B10B
:10411000174F184B1C6807E0304603F0BFFB0546FD
:10412000F5E7154FF5E72469BCB12368002BFAD0F9
:10413000124B1B680BB1A342F5D12A4631462046EB
:10414000B847B8F1000FEED00A238DF807300122EE
:104150000DF107012046B847E5E7B9F1000F03D19B
:10416000284603B0BDE8F083FFF7BCFFF8E700BFC7
:10417000D93F0010CC180020C93F0010D4180020EF
:104180002DE9F84307460E4691469846144B1C68A5
:1041900007E0A36823B131463846984700281CDC65
:1041A000246934B10F4D2D68002DF2D0A542F7D10E
:1041B000EFE70D4B5B6A984508D80B4A926A4A456F
:1041C00009D2984502D06FF0010006E001200021DD
:1041D000FEF74AF8DAE76FF00100BDE8F88300BFA8
:1041E000CC180020D418002000000B40094A1368A6
:1041F00002E003F110021B6943B113688342F8D156
:1042000031B90369136000230361704701B1106085
:10421000704700BFCC18002010B5054B1C6800E0AB
:10422000246924B16368002BFAD09847F8E710BDE1
:10423000CC18002008B500F0E1F908BD10B582B037
:104240000446FEF709F8221841F10003002B0ADBAF
:10425000012101A8FFF794FF002802DB40B19DF87F
:10426000040002B010BD4FF0FF326FF00043EFE7E3
:10427000034B044A40F203110348FFF775FE00BFE9
:10428000DC810010F0870010E081001010B582B0D2
:1042900004468DF807000123002219460DF107009E
:1042A000FFF728FF204602B010BD38B5054603F0E1
:1042B000F5FA044601231A4601462846FFF71AFF7D
:1042C000FFF7AAFF204638BDF0B5A3B004460E465E
:1042D000FFF7F2FE05460023019301AF3346224665
:1042E00039460848FFF728FE04463846FFF7B4FE73
:1042F000FFF792FF15B9204623B0F0BDFFF7F2FE9D
:10430000F9E700BF994000100FB400B583B004A9CD
:1043100051F8040B0191FFF7D7FF03B05DF804EBF0
:1043200004B0704770470000014B00221A707047BC
:10433000531D00204B79FF2B0BD18B795BB9CB79C7
:10434000012B0AD1082A0AD98A78064B1A7009204B
:104350007047002070470020704700207047002001
:10436000704700BF531D002001207047012923D151
:1043700008B59188114B1B78994201D0002008BDE7
:104380005378012B03D0022B0FD00020F7E7518880
:1043900011F4807F06D0480AC1F3402201F07F016A
:1043A000FEF725FA4FF0FF30F6E7642200210846B9
:1043B000FEF7A8F90120E2E701207047531D002015
:1043C00000487047D888001001290FD108B59446DD
:1043D0005378012B0CD19388072B01D0002008E0E3
:1043E000A623044A614601F0F5FB02E00120704774
:1043F000002008BD3088001001230370004870477A
:104400001088001008B50B68B3F5966F00D008BD92
:10441000002211464FF0FF30FEF7E9F90368EFF391
:10442000108272B6D3E8CFCF0121BCF1000FF9D1D1
:10443000C3E84C1FBCF1000FF4D1BFF35F8F4260A3
:1044400070470000024B1860024B1960704700BFB4
:104450006C1800207018002008B5FDF7FDFE0E4A0C
:10446000821841F10003002B11DB0C4803F06CFAB9
:1044700060B100214FF0FF3001F040FA002001F060
:104480002DFD0028F5D1054803F052FA08BD4FF084
:10449000FF326FF00043E8E740420F002C1D002080
:1044A00038B5124B1B68C3B1104C2046FFF7B6FF5E
:1044B00000230F4A137021686268C1E88F3F82F3BE
:1044C0001088002400250B4B1878FCF7EFFF40B94B
:1044D000002400252046294638BD4FF47A74002573
:1044E000F1E7044B1878FDF70BF8F3E7F81C002010
:1044F000551D0020541D002008B5024B1878FCF70C
:10450000FFFF08BD541D002070B584B00646144658
:104510001D46FDF7A1FE221845EB0103002B0BDB26
:104520009DF828100291099901910899009130464F
:10453000FDF7C8FC04B070BD4FF0FF326FF00043D0
:10454000EEE7F0B585B005460C4616461F46FDF76A
:1045500045FC9DF828300293019700962A46234691
:10456000FFF7D2FF05B0F0BD10B582B000211D48A5
:1045700003F0EEF9A8B91C4B1B6883B11A4C204616
:10458000FFF74CFF194A1378DBB201211170206844
:1045900062680021C0E88F1F82F31088BBB102B0AF
:1045A00010BD00214FF0FF3001F0A8F9002001F00C
:1045B0006FFC04460B4803F0BBF9002CEFD00C4B0A
:1045C0001B68002BEBD00B4A10689847E7E70123E4
:1045D00000930B46084A4FF47A700021FFF7B1FFB1
:1045E000DDE700BF2C1D0020F81C0020551D002019
:1045F0006C18002070180020A144001010B582B083
:104600004FF050431C68FDF7E9FBFDF7CBFCA042DF
:104610002DD1244B1B780021084602F001F9224BD2
:104620001B6853B30120FDF751F9C0B21F4C207035
:104630001F49FCF785FF01212078FCF757FF0E206A
:10464000FCF772FF0446E0B10120FCF7A5FE01462D
:104650001848FDF799F9002217490E20FCF7A0FF32
:1046600001211648FFF7C2FD204602B010BD144BD1
:10467000144AC1211448FFF777FC0B48FDF742F9B3
:10468000D0E70C4A002313605360012200920F4AC6
:104690004FF47A700021FFF754FFC443E40F002C5D
:1046A000E2D0DDE7808C00102C1D0020541D00207E
:1046B00069450010F81C0020F9440010400E00204D
:1046C000288200100889001030820010A1440010D8
:1046D00008B5002001F0C2FB08BD000038B5044653
:1046E0000D46FFF7F5FF90B3002001F0D1FB88B332
:1046F000FDF7B2FD1A4A821841F10003002B16DBC8
:10470000184803F021F940B3FFF7E2FF18B1002089
:1047100001F0BEFB80B900214FF0FF3001F0EEF850
:104720006FF002040F4803F003F9204638BD4FF044
:10473000FF326FF00043E3E72A462146002001F0F4
:10474000B3FB04460028EDD16FF00204EAE76FF0F6
:104750000204EAE76FF00204E7E76FF00204E4E71F
:1047600040420F002C1D0020F8B507460D46FDF70E
:1047700073FD2E4A821841F10003002B04DB2C4804
:1047800003F0E2F828B9F8BD4FF0FF326FF00043B4
:10479000F5E7FFF79DFF002845D1264B00200021BB
:1047A000C3E90001224803F0C3F8ECE700214FF011
:1047B000FF3001F0A3F8002001F090FBFFF788FF25
:1047C0000028EFD0002001F007FCF8B1AC42E9DA94
:1047D0002E1B002001F000FC864200DC3046002841
:1047E000E4D002463919002001F0D4FB064600212E
:1047F0004FF0FF3001F082F8002001F06FFB3444ED
:10480000FDF72AFD0B4BC3E90001DFE7FDF724FDAF
:10481000084A13685268084E9B1942F1000283420D
:104820008A41D3D2BEE70024D0E700BF40420F0048
:104830002C1D00201010002020A107000048704708
:1048400084890010004870473089001010B5044674
:10485000144B1B786BB18CB9134B40F209425A8050
:10486000012301335B009BB20F4843F44073038084
:1048700010BD11210B4800F047F8ECE7052C0ED8CD
:104880000A4B53F824000023122BEAD8C25C002AFA
:10489000E7D00133044921F81320DBB2F4E700200C
:1048A000E6E700BF381D0020A4180020188900107A
:1048B00000B58BB045F24730FDF78AFF0346012271
:1048C000092101A89847042801D100230EE00A4BD2
:1048D0000A4A29210A48FFF747FBC3F10F02283291
:1048E0006A4412F8241C074AD1540133072BF4DD23
:1048F0000BB05DF804FB00BFC0820010B889001047
:10490000C8820010201D002008B511B18C4600227D
:1049100008E0104B104A35211048FFF725FB3733CC
:10492000835401320CF1FF3393420FD90F2A0DD873
:1049300053080B49CB5CD14301F0010189000B41C5
:1049400003F00F03092BEADC3033E9E7002383543B
:1049500008BD00BF1883001098890010C88200109D
:10496000201D002030B400F07F05C3094FEA450C3C
:104970000CEBD01C244C04EB4C1C8CF8020083F094
:1049800001008CF8010000208CF80300ACF818102E
:104990008CF81B20DBB9EA001C49114403EB4500ED
:1049A000194A02EB4012916003EB4501164A02EBF3
:1049B00041129268002111607DB903EB4502124B50
:1049C00003EB42135960124ADA6030BC7047114958
:1049D00001EBC501CCF80810E6E753B96A1ED20016
:1049E0000D49114403EB4503074A02EB4313596099
:1049F000EBE7691E094A02EBC10203EB4501024BDA
:104A000003EB41135A60E0E7D818002084001050EF
:104A100000011050800010500C0010500800105081
:104A200008B5038B3F3323F03F03C27E022A08D030
:104A300008490A68C26013440B60074A934202D8CF
:104A400008BD5B00F4E7054B054A52210548FFF716
:104A50008BFA00BFDC1C0020FF0F105020830010D9
:104A6000048A00106483001070B500F07F054FEADF
:104A7000450C0CEBD0130C4C04EB4314FFF772FF06
:104A800005B970BD218B2046FFF7CAFFE27EE368BF
:104A900083F0A04383F4801343EA826343F000432E
:104AA00062681360EDE700BFD818002008B500F079
:104AB0007F035B0003EBD010024B03EB401000F0D0
:104AC0001BF908BDD818002008B520B901210E2017
:104AD000FCF70CFD08BD034B034A40F29711034855
:104AE000FFF742FAD4830010F489001064830010A9
:104AF00008B528B9002211468020FFF7D7FF08BD6E
:104B0000034B044A40F2A1110348FFF72DFA00BFFE
:104B1000D4830010E489001064830010024B4FF42A
:104B20008032DA64704700BF0020115070B548BB76
:104B3000064600F0C1F8174C0C23A367FF22164964
:104B40000E20FCF72DFD40252A460021134802F0D7
:104B5000E1FD002229461046FFF786FF0022294684
:104B60008020FFF781FF02F0CFFE012525644FF082
:104B70000053E3640A4BC4F890303046FFF7CEFF91
:104B8000284670BD074B084A40F263110748FFF7FB
:104B9000EBF900BF0000115099030020D818002045
:104BA00010D00100D4830010188A00106483001014
:104BB000044B197021B1044B4FF40032C3F890201C
:104BC000704700BF501D0020002011500B7813F0DB
:104BD0007F0F02D14B78052B00D070474B88DBB29A
:104BE000014A1360F9E700BF00001150CA7802F0D3
:104BF0000302012A09D008B50B468988C1F30A01CE
:104C00009878FFF731FF012008BD0020704708B5F4
:104C100002F07AFE08BD000010B530B90846114612
:104C20001A46FFF743FF012010BD034B034A4FF420
:104C300001710348FFF798F9D4830010D48900105C
:104C40006483001008B511F07F0304D1CA090ED1A6
:104C50000220084A90665B0003EBD1134FF4006218
:104C60000021054800EB431002F06AFE08BD012058
:104C7000EFE700BF00201150D818002008B511F050
:104C80007F0300D108BD5B0003EBD113044800EBA8
:104C900043100022C2706FF4006102F051FEF1E790
:104CA000D818002004E011F8012B00F8012B1A4657
:104CB000531E002AF7D1704708B54FF080530A4AB7
:104CC000136002F580521360084B9B6813F0805FFD
:104CD000FAD04FF480520021054802F01BFD054B2D
:104CE00009225A6708BD00BF0020024000000240B0
:104CF000000010500000115070B504460D461646D5
:104D0000837EABB9A6820023E3820123A3762561CB
:104D1000204602F005FE20B10B4B4FF40032C3F8E1
:104D20009020204602F008FE50B10123237770BD89
:104D300081780648FFF7E8FA204602F0E1FDE1E756
:104D4000204602F0E9FDF2E700201150C484001073
:104D50000368EFF3108272B6D3E8CFCF0121BCF124
:104D6000000FF9D1C3E84C1FBCF1000FF4D1BFF321
:104D70005F8F42607047000038B50546002408E0A8
:104D8000D21A1B4B03EB4213DB68284698470134C9
:104D9000E4B2184B1B782246591CA14215DBA342F2
:104DA000EED9154B1B6813EB4413EDD140F22522CD
:104DB00012491348FFF7A8FA4FF0E023D3F8F03D6B
:104DC00013F0010F13D000BE11E00E4C542200214D
:104DD000204602F09FFC4FF0FF336360A360E36066
:104DE00023612022FF2104F1140002F093FC38BD5E
:104DF000EC8A00104F1D00209C120020B88A001081
:104E0000FC8400106C14002008B5FFF7B5FF00F01B
:104E100037FF08BD70B505460C461646486900F0D8
:104E200039FF6369324601212846984770BD00006A
:104E30002DE9F04F83B08246481EC0B2FFF702FD55
:104E400020B1834643780193022B11D040F2D63231
:104E500062496348FFF758FA4FF0E023D3F8F03D7A
:104E600013F0010F00D000BE002003B0BDE8F08FAA
:104E7000C279C2F340105B4B197860F304111970CA
:104E8000C2F38012C9B262F3451119700BF109081F
:104E9000BBF802309B447BE098F8033098F8002080
:104EA00090447DE040F2F1324C494D48FFF72CFA36
:104EB0004FF0E023D3F8F03D13F0010F00D000BE17
:104EC0000020D2E7F31A484A02EB4319D9F8103010
:104ED0002A46414650469847082801D985421ED2A5
:104EE0000134E4B2414B1B7826465A1CA2424ADBED
:104EF000A342E7D93E4B1B6813EB4419E6D140F2BD
:104F0000FA3236493648FFF7FFF94FF0E023D3F87D
:104F1000F03D13F0010F00D000BE0020A5E73B4696
:104F20004F468146012B11D000218B4224D998F89D
:104F300002200A44D2B22B4810440079FF280BD13A
:104F40002848024414710131C9B2EEE73969294A8F
:104F50009142E9D1019BE7E740F219421F492048FD
:104F6000FFF7D2F94FF0E023D3F8F03D13F0010F33
:104F700000D000BE002078E723464A4641461E483E
:104F800001F05AFDC844194B1B7801339E4212DCD4
:104F9000D84520D298F801300B2B3FF47DAF012388
:104FA00098F80120042A7FF47DAFABEB0805ADB281
:104FB00000241F4696E74FF4856208490848FFF72A
:104FC000A3F94FF0E023D3F8F03D13F0010F00D028
:104FD00000BE002049E7012047E700BF8C8A00108F
:104FE000FC8400106C140020EC8A00104F1D00207F
:104FF0009C120020516100108014002070477047FF
:10500000002070470020704738B505460C464B8895
:105010001A0AD8B2531E0E2B64D8DFE803F0082D0D
:105020004E6363592D636363636363632200FFF719
:1050300005FC024628B112232146284600F0CAFD8D
:1050400051E040F23A422C492C48FFF75DF94FF00D
:10505000E023D3F8F03D13F0010F00D000BE002094
:1050600041E0FFF7ADF9024600283DD043882146D4
:10507000284600F0AFFD36E0022A09D0FFF7C2FF54
:10508000024698B353882146284600F0A3FD2AE043
:10509000FFF7D8FB02460028F4D140F261421649DE
:1050A0001648FFF731F94FF0E023D3F8F03D13F045
:1050B000010F00D000BE002015E0A188FFF7C6FB5D
:1050C0000246A8B103782146284600F083FD0AE095
:1050D000FFF796FF024668B103782146284600F0A4
:1050E00079FD00E0002038BD0020FCE70020FAE751
:1050F0000020F8E70020F6E7748A0010FC84001016
:105100007047704770477047034B5878C0B20038FB
:1051100018BF0120704700BF6C140020024B1878A4
:10512000C0F38000704700BF6C140020024B187859
:10513000FF3818BF01207047740E0020F8B50646EE
:105140000D46FFF7F3FF0746002854D105B354225C
:105150000021374802F0DEFA364B00221A70364C36
:105160002046FCF7CFFB354B1C60354C2046FCF746
:1051700013FC143C204602F019F8324B1C60324BF1
:1051800023B13248FFF738F9314B1860002417E09B
:105190004FF4E9722F493048FFF7B6F84FF0E0239B
:1051A000D3F8F03D13F0010F25D000BE23E0D21A52
:1051B0002A4B03EB42135B687BB198470134E4B29E
:1051C000224B1B782246591CA14216DBA342EED982
:1051D0001F4B1B6813EB4413EDD14FF4F8721D49BC
:1051E0001D48FFF791F84FF0E023D3F8F03D13F09E
:1051F000010F00D000BE3846F8BD194B1E7029467D
:105200003046FFF793FC074618B13046FFF75CFCC9
:10521000F1E74FF4FC720F490F48FFF775F84FF0B4
:10522000E023D3F8F03D13F0010FE4D000BEE2E735
:105230006C140020511D002064140020C0140020B4
:105240006C0E0020C4140020F94300104F1D0020F4
:105250009C120020DC8A0010FC840010EC8A0010F4
:10526000740E002070B51A4B1E788B7813F0700FF7
:105270000ED10C46174B9978204601F06DFB054680
:10528000B0B121463046FFF7B1FC0546284670BD57
:1052900040F20B5210491148FFF736F84FF0E02367
:1052A000D3F8F03D13F0010F00D000BE0025EDE76C
:1052B00040F20C5208490948FFF726F84FF0E02366
:1052C000D3F8F03D13F0010FE0D000BEDEE700BFE1
:1052D000740E00206C140020448A0010FC8400101E
:1052E0002DE9F84F80460C4616461F46DDF82890FB
:1052F000DDF82CA0002526E040F2E7421F492048B7
:10530000FFF702F84FF0E023D3F8F03D13F0010F60
:1053100000D000BE4FF0000B5846BDE8F88F4FF4A8
:105320009D6216491648FEF7EFFF4FF0E023D3F8D1
:10533000F03D13F0010FEFD000BEEDE78AF800302A
:1053400023781C440135AE4214DD6378052BD3D19C
:10535000E17801F00301B942CED121464046FFF782
:1053600081FF83460028DAD0A378DA09E6D189F8EC
:105370000030E5E74FF0010BCEE700BF548A001084
:10538000FC84001008B501F07F00400000EBD11054
:105390003030044B1844044B1968043001F096FA7D
:1053A00008BD00BF6C140020C014002008B501F037
:1053B0007F00400000EBD1103030044B1844044B08
:1053C0001968043001F0AAFA08BD00BF6C1400206F
:1053D000C014002070B51F48007801F07F051E4CF6
:1053E00004EB450C0CEBD11C9CF8344014F0010F7D
:1053F0001FD1CE09184C04EB4504344494F834C052
:105400004CF0010C84F834C03034FFF705FCF8B9D7
:10541000227922F001022271227922F00402227103
:105420004FF0E023D3F8F03D13F0010F10D000BE91
:105430000EE040F2395209490948FEF765FF4FF086
:10544000E023D3F8F03D13F0010F00D000BE0020A0
:1054500070BD00BF740E00206C140020348A001050
:10546000FC84001038B501F07F05CC090A4B187890
:10547000FFF7E8FB094B03EB4503234493F8342083
:1054800042F0020283F8342093F8342042F0010203
:1054900083F8342038BD00BF740E00206C14002047
:1054A00038B501F07F05CC090A4B1878FFF7E6FB09
:1054B000094B03EB4503234493F8342022F0020206
:1054C00083F8342093F8342022F0010283F834204A
:1054D00038BD00BF740E00206C14002001F07F0264
:1054E000044B03EB420303EBD11191F83400C0F3FA
:1054F000400070476C1400202DE9F04182B0064650
:105500000C46002000F0C6FB237803F06003602BFC
:1055100021D0402B32D0227802F01F02012A00F065
:105520000181022A00F04281002A40F0C981202B2B
:105530002ED0002B4DD16378092B00F2E880DFE8F4
:1055400013F0D300C300E600B300E6005200AD0044
:10555000E60061006E004FF43572B249B248FEF7C2
:10556000D3FE4FF0E023D3F8F03D13F0010F00D04D
:1055700000BE0025284602B0BDE8F081AB4800F02F
:1055800089FB224601213046FEF71EFF0546F1E762
:10559000A388DBB20F2B00F29D81A54A13441B792F
:1055A000A44A1278934206D2A34A116811EB431120
:1055B00009D10025DEE7511C9942C0F28D819B1A6A
:1055C0009E4901EB431122463046FFF723FC054676
:1055D000D0E74FF0E023D3F8F03D13F0010F00D0F7
:1055E00000BE0025C6E7204600F05AFB6188C9B21C
:1055F0003046FFF77DFA8E4A137843F002031370AA
:105600000125B7E78A4B5B788DF8063001230DF151
:1056100006022146304600F0DDFA0125AAE765883A
:10562000EDB2834B5B78AB4232D0814B5B785BB998
:105630007F4B5D7055B329463046FFF7F9FB0546B1
:1056400090B1FFF75DFD23E000213046FFF7B0FA8F
:105650003046FFF7DCFA764F97F802803046FFF7C6
:105660008BFB87F80280E3E74FF449726D496E487F
:10567000FEF74AFE4FF0E023D3F8F03D13F0010FA0
:1056800000D000BE6A4B00225A7073E7FFF739FD65
:105690002146304600F08AFA01256BE72146304664
:1056A000FFF7B2FC054665E76388012B01D00025B2
:1056B00060E75F4A137843F00803137021463046D1
:1056C00000F074FA012555E76388012B01D000250D
:1056D00050E7574A137823F00803137021463046E9
:1056E00000F064FA012545E7514B1A78930803F05E
:1056F0000203C2F340121343ADF8063002230DF14A
:1057000006022146304600F065FA012532E74FF0E7
:10571000E023D3F8F03D13F0010F00F0DF8000BE6E
:10572000002527E7A388DBB20F2B00F2D980404A7F
:1057300013441B793F4A1278934222D23E4A1168A1
:1057400011EB431100F0CE8022463046FFF762FB9A
:10575000054600287FF40EAF237813F0600F7FF426
:1057600009AF63780A3B012B3FF604AF00F092FAD1
:1057700063780A2B0ED02146304600F017FA012537
:10578000F8E6511C9942C0F2AF809B1A2B4901EBFD
:105790004311D9E700238DF8063001230DF10602ED
:1057A0002146304600F016FA0125E3E6A288D1B280
:1057B00002F07F05C2F3C01012F0700F17D11C4A1F
:1057C00002EB45020244127D1A48007882421ED242
:1057D0001948056805EB421593B3002D00F086804B
:1057E000224629463046FFF715FB0546C2E640F241
:1057F00095320C490C48FEF787FD4FF0E023D3F8B3
:10580000F03D13F0010F00D000BE0025B2E6451CAC
:10581000954204DB121A094D05EB4215DCE7002521
:10582000DAE700BFA08A0010FC840010C943001012
:105830006C1400204F1D00209C120020EC8A0010E8
:105840006378012B10D0032B0ED07BBB3046FFF7C3
:1058500045FEADF8060002230DF106022146304652
:1058600000F0B8F9012585E6628822B9012B19D02C
:105870003046FFF7F7FD002D3AD022462946304644
:10588000FFF7C8FA002000F005FA1B4B93F83550DB
:1058900015F001057FF46EAE2146304600F086F922
:1058A000012567E63046FFF7FBFDE4E74FF0E02314
:1058B000D3F8F03D13F0010F00D000BE002559E6EB
:1058C0004FF0E023D3F8F03D13F0010F12D000BEEB
:1058D00000254FE600254DE600254BE6002549E66C
:1058E000002547E6002545E6002543E6002541E67C
:1058F00001253FE600253DE66C14002010B584B07C
:10590000FFF714FC48B904B010BD9DF80400FFF780
:105910007BFA9DF808207F4B9A707F4B1C6804F13E
:105920001400FFF715FA01A9204601F0E7FB6169B1
:10593000A3690022C1E88F2F83F310880028E2D0EA
:105940009DF80530013B072B00F2DA8001A252F8E6
:1059500023F000BF0B59001075590010ED5A0010CC
:10596000B35A0010CD5A001083590010195A001074
:10597000DF5A00109DF80400FFF746FAFFF7C1FB5D
:10598000CBE7664B1B78002B36D0644A1378013B7B
:10599000DBB213701378002BBFD15E4B1A7842F044
:1059A00001021A7093F8342022F0010283F83420A7
:1059B00093F8342022F0040283F8342093F8352041
:1059C00022F0010283F8352093F8352022F00402FA
:1059D00083F8352002A99DF80400FFF78DFD00280B
:1059E0009BD100219DF80400FFF72CF980219DF840
:1059F0000400FFF727F990E740F26522484949483B
:105A0000FEF782FC4FF0E023D3F8F03D13F0010FD6
:105A10003FF479AF00BE76E79DF8081001F07F00F3
:105A2000CC093C4B03EB400303EBD11393F8342038
:105A300022F0010283F8342093F8342022F004028B
:105A400083F83420A8B1334B03EB400323441B7D80
:105A5000354A1278934214D2344A126812EB431337
:105A600017D09C69039B9DF809209DF80400A0476E
:105A700053E7039B9DF809209DF8040000F01EF9F0
:105A80004BE7501C984204DB9B1A294A02EB431354
:105A9000E7E74FF4247222492248FEF735FC4FF025
:105AA000E023D3F8F03D13F0010F3FF42CAF00BE1C
:105AB00029E7184B1B7813F0010F3FF42EAF154B5D
:105AC0001878C0F3C000FFF71DFB26E7114B1B78C9
:105AD00013F0010F3FF421AFFFF715FB1DE7029B09
